:020000040800F2
:10000000C04B00201560000875600008ED50000826
:100010007560000875600008756000080000000049
:1000200000000000000000000000000075600008F3
:100030007560000800000000B5BA000899AE00081D
:10004000756000087560000875600008756000083C
:10005000756000087560000875600008756000082C
:10006000756000087560000875600008756000081C
:100070007560000875600008E955000875600008A3
:1000800075600008756000087560000875600008FC
:100090007DBA00087560000875600008756000088A
:1000A00075600008756000087560000875600008DC
:1000B000DDA500087560000885560008E5A3000866
:1000C00041A40008756000087560000875600008AC
:1000D00075600008ED080008D10700087560000889
:1000E0007560000875600008756000080000000079
:1000F0000000000000000000000000000000000000
:1001000000000000000000005FF808F1B0B584B006
:1001100000AFF860B9607A603B60BB681B7803F0A1
:100120002003002B00F03C81FB681B780D2B0BD0CB
:10013000FB681B783B2B07D0FB681B780A2B03D08E
:10014000FB681B78002B3CD1BB681B7803F0400395
:10015000002B36D17B6800221A60BB681B7823F025
:100160004E03DAB2BB681A70BB681B7843F0010318
:10017000DAB2BB681A70BB681B78302B40F2108172
:100180003B6A1B881A46BB8C013B13401A463B68EE
:1001900013440D221A703B6A1B8801339AB23B6AE2
:1001A0001A803B6A1B881AB2BB8C013B9BB21BB204
:1001B00013401BB29AB2BB6A1A80BB68A1221A70A4
:1001C000EEE03B6BD3E900450AF0F6FD02460B4634
:1001D0009D4208BF944206D2BB681B78212B02D0F7
:1001E000BB6821221A70BB681B7803F01003002B38
:1001F00054D0BB681B7803F04003002B0CD0FB6885
:100200001B78292B40F0CC80BB681B7823F040037F
:10021000DAB2BB681A70C3E0FB681B78282B07D1E1
:10022000BB681B7843F04003DAB2BB681A70B7E0D2
:100230003B6A1B881A46BB8C013B13401A463B683D
:100240001344FA6812781A703B6A1B881AB2BB8C86
:10025000013B9BB21BB213401BB29AB2BB6A1A801D
:100260003B6A1B8801339AB23B6A1A803B6A1A8840
:10027000FB6A1B889A4240F09380BB681B7863F04E
:100280007F03DAB2BB681A703B6A1A88BB8C5B08C2
:100290009BB213449AB2FB6A1A8081E0BB681B7858
:1002A00003F00103002B4AD00AF086FD0A460146FE
:1002B0007B6B1B684FF000045B1844EB02043A6B45
:1002C000C2E90034FB681B782A2B0ED17B681B68BF
:1002D0001B02FA6812781A447B681A60BB681B78A4
:1002E0000233DAB2BB681A7029E0FB681A782E4B29
:1002F0001968BB681B785B08DBB2DB43DB0003F0EB
:10030000180321FA03F3DBB29A420ED17B681B6813
:100310001B02FA6812781A447B681A60BB681B7863
:100320000233DAB2BB681A7009E07B6800221A60F7
:10033000BB681B7823F05F03DAB2BB681A70BB6836
:100340001B7803F07F03292B2AD1BB681B7823F08D
:100350007F03DAB2BB681A70BB681B7843F03003C6
:10036000DAB2BB681A703B6A1A88BB6B1A803B6AA8
:100370001A88BB8C5B089BB213449AB2FB6A1A8042
:100380003B6A1B881AB2BB8C013B9BB21BB2134069
:100390001BB29AB2FB6B1A807B6800221A60FFE7DF
:1003A00000BF1037BD46B0BDB40E002080B485B08C
:1003B00000AF786039603B681B682D4AA2FB0323BD
:1003C0005B099BB21B01FB813B681B68FA89120920
:1003D00092B21146642202FB01F29B1ABB60BB6819
:1003E0001B013233224AA2FB03235B099BB203F0B9
:1003F0000F039AB2FB891343FB817B681B8A9BB274
:1004000023F440539AB27B681A827B689B899BB223
:1004100023F4B05323F00C039AB27B689A817B6873
:100420009B899BB243F00C039AB27B689A817B68EC
:100430009B8A9BB223F440739AB27B689A827B6852
:10044000FA891A817B689B899BB223F080039AB258
:100450007B689A817B689B899BB243F020039AB2A8
:100460007B689A8100BF1437BD4680BC704700BFCF
:100470001F85EB5180B584B000AF78600021274B19
:100480000A465A70264B0A465A700021254B0A46E6
:100490001A80254B0A461A800021244B0A461A80EE
:1004A000234B0A461A80234B00221A60224A224B11
:1004B0009B6943F004039361204A204B1B6823F49B
:1004C0007F4313601D4A1D4B1B6843F49643136022
:1004D000194A194BDB6943F40033D3617B689B00F5
:1004E000174AB2FBF3F3FB6007F10C0319461548FA
:1004F000FFF75CFF144B402283F82623124B402267
:100500005A60104A0F4B9B899BB243F400539BB235
:10051000938100BF1037BD4680BD00BFEC040020B2
:10052000E8040020F0040020EE040020860A0020E9
:10053000B80B0020FC04002000100240000801401D
:1005400000E9A4350044004000E100E080B584B03B
:1005500000AF78600021274B0A461A70264B0A46E6
:100560001A700021254B0A461A80254B0A461A802C
:100570000021244B0A461A80234B0A461A80234B3B
:1005800000221A60224A224B9B6943F004039361C4
:10059000204A204B5B6823F47F6353601D4A1D4B48
:1005A0005B6843F496635360194A194B9B6943F4A3
:1005B000804393617B689B00174AB2FBF3F3FB60B7
:1005C00007F10C0319461548FFF7F0FE144B4022C3
:1005D00083F82523124B20225A60104A0F4B9B8927
:1005E0009BB243F400539BB2938100BF1037BD46CA
:1005F00080BD00BFEC040020E8040020F6040020C9
:10060000F4040020800900208A0A00200005002050
:10061000001002400008014000D2496B0038014040
:1006200000E100E080B582B000AF03460A46FB71EE
:100630001346BB71BB79022B6CD8BB7903F0010365
:10064000DAB2554B1A70BB79002B14BF012300237B
:10065000DBB21A46514B1A7055E04F4B1B781A46C5
:100660004F4B9B5CDAB24F4B1A704B4B1B781A46C0
:100670004D4B53F822204B4B1B78591CC8B24949AB
:1006800008701344FA791A70464B1B7803F01F0365
:10069000DAB2444B1A70454B4CF250321A6004E007
:1006A000424B1B68013B414A13603B4B1B781A4687
:1006B0003F4B9B5CDAB23B4B1B789A4203D13B4BDE
:1006C0001B68002BECD1344B1B781A46354B19783C
:1006D000334B995472B6304B1B781A46354B53F84E
:1006E00022302D4A12781146324A52F821201288BF
:1006F00042F0800292B21A8062B6274B1B78013317
:10070000DAB2254B1A70244B1A78244B1B789A4284
:10071000A3D93CE0BB790C2B29D1274B1B78802B2C
:100720001ED8224B4CF250321A6004E01F4B1B685B
:10073000013B1E4A1360214B1B687E2B03DC1B4BC5
:100740001B68002BF2D11C4B1B7819461C4AFB7905
:100750005354194B1B780133DAB2174B1A7016E059
:100760000F21184809F090FA0AF062FD0FE0164BCD
:100770001B885A1C91B2144A11801946134AFB79FE
:100780005354114B1B883F2B01D90AF051FD00BF78
:100790000837BD4680BD00BF840A0020880A0020BB
:1007A000E80400209C0A002000000020980A002095
:1007B000EC04002008000020250900202409002066
:1007C00098460020ECF2000860090020284700202D
:1007D00080B58AB008AF354B1B889BB27B607B68C5
:1007E00003F02003002B30D0304B9B889BB2DBB250
:1007F000BB700AF0EDFA2E4B1B7803F02003002BA0
:1008000009D0BB7803F03F03DBB2BB70BB7818465E
:1008100005F07EFC16E0B81C264B0793264B06938A
:10082000264B0593264B0493264B0393264B0293AA
:100830004FF480730193254B0093254B254A26499D
:10084000FFF764FC0AF0D2FA2CE07B6803F0800327
:10085000002B27D0214B5B78FB70214B5B78DBB200
:10086000FA789A420FD1114A104B9B899BB223F020
:1008700080039BB293811B4B1B8823F008039AB221
:10088000184B1A800EE0094AFB78591CF97019467A
:10089000154B5B5C9BB29380FB7803F01F03DAB2CD
:1008A0000E4B5A7000BF0837BD4680BD0044004063
:1008B000A4060020B80B0020EE040020B00B00209E
:1008C000A80B0020F2040020860A0020F00400207B
:1008D00084090020FC040020A10B0020EC0400206F
:1008E000E8040020820F0020A804002080B58AB010
:1008F00008AF354B1B889BB27B607B6803F02003FD
:10090000002B30D0304B9B889BB2DBB2BB700AF01F
:100910005FFA2E4B1B7803F01003002B09D0BB7835
:1009200003F03F03DBB2BB70BB78184605F0F0FB69
:1009300016E0B81C264B0793264B0693264B0593CF
:10094000264B0493264B0393264B02934FF480735C
:100950000193254B0093254B254A2649FFF7D6FBEB
:100960000AF044FA2CE07B6803F08003002B27D0C8
:10097000214B1B78FB70214B1B78DBB2FA789A4233
:100980000FD1114A104B9B899BB223F080039BB27D
:1009900093811B4B1B8823F008039AB2184B1A80D3
:1009A0000EE0094AFB78591CF9701946154B5B5C3F
:1009B0009BB29380FB7803F01F03DAB20E4B1A70E0
:1009C00000BF0837BD4680BD00380140A4060020A6
:1009D0008A0A0020F4040020B40B0020900A0020B2
:1009E000F804002080090020F6040020A00A00205E
:1009F00000050020A00B0020EC040020E8040020EB
:100A0000820F0020C804002080B483B000AF78605B
:100A10000B467B8013467B707B78002B08D07B686D
:100A20009B899AB27B8813439AB27B689A8109E0CA
:100A30007B689B899AB27B88DB439BB213409AB256
:100A40007B689A8100BF0C37BD4680BC70470000B0
:100A5000F0B58BB004AFF860B9607A603B600023FA
:100A6000FB8200237B75B14B00221A707B681B88C8
:100A7000FB8204F049B8FB8ABA6813441A78AB4B7E
:100A80001A70FB8A01339AB27B681A80A84B1B78D4
:100A9000012B0FD1A74B1B8801339AB2A54B1A80AB
:100AA000A24B1B780D2B05D1A34B1B8801339AB2A7
:100AB000A14B1A803B6B1B78382B1AD03B6B1B78F1
:100AC000402B16D03B6B1B785C2B12D0974B1B78BE
:100AD000202B04F00180954B1B78602B09D9934B98
:100AE0001B787A2B05D8914B1B78203BDAB28F4BC1
:100AF0001A7000233B758D4B1B780D2B07D08B4B49
:100B00001B780A2B03D0894B1B78002B05D120239F
:100B10003B75884B00221A8009E0844B1B783B2BE5
:100B200003D0824B1B78282B01D12E233B753B6BC6
:100B30001B78203B412B03F2CD8701A252F823F012
:100B4000490C0008410D00088D14000831270008E9
:100B5000291800087D1D00082B2500089B26000889
:100B6000D54A0008D54A0008D54A0008D54A0008E9
:100B7000D54A0008D54A000831270008350E00087C
:100B80004D2700084D2700084D2700084D27000875
:100B90007F280008572E0008853100087D130008C3
:100BA000591400088D37000809390008AF4A0008B9
:100BB000693900089B45000841400008D54A0008F3
:100BC000AF400008D54A0008F5270008D54A0008BC
:100BD00085460008AB29000863380008533A00082E
:100BE0004F35000817330008092F0008FF360008AA
:100BF000FF4300086F44000839470008D54A000841
:100C000007450008D54A0008A5420008D54A000853
:100C1000D54A0008D54A0008D54A0008D54A000838
:100C2000D54A0008D54A0008D54A0008CF47000831
:100C3000534800080D2C0008D54A00080741000859
:100C4000D54A00083D4300083C4B1B7823F07D0348
:100C5000DAB23A4B1A707B6B00221A70FB6B0022DF
:100C60001A70324B1B78532B03D13B6B21221A7025
:100C700056E02E4B1B78462B03D13B6B22221A7079
:100C80004EE02A4B1B78412B03D13B6B23221A7079
:100C900046E0264B1B78472B03D13B6B24221A706E
:100CA0003EE0224B1B784D2B03D13B6B25221A7063
:100CB00036E01E4B1B78552B03D13B6B26221A7056
:100CC0002EE01A4B1B783B2B03D0184B1B78282B9C
:100CD00007D1174B1B78012B22D13B6B2E221A70A8
:100CE0001EE0124B1B780D2B1AD0104B1B780A2BD1
:100CF00016D00E4B1B78002B12D00C4B1B78029396
:100D0000FB8A01930123009300230022FF2100208E
:100D100003F0A2FF3B6B2E221A70FC2303F0FBBEF4
:100D20007B6C00221A6003F0ECBE00BF0D050020B2
:100D30008D0E00200C090020080900200C05002061
:100D4000A34B1B78184603F0F3FE03467B757B7DAF
:100D5000FF2B4DD17B6C00221A609D4B1B78502BD2
:100D600003D09B4B1B78482B11D13B6B2F221A7061
:100D7000984B1A78984B1A70984B00221A70984B1F
:100D800000221A70BB6B00221A8003F0BABE904B8F
:100D90001B78522B04D13B6B37221A7003F0B1BE83
:100DA0008B4B1B78492B07D13B6B24221A707B6C31
:100DB00028221A6003F0A5BE854B1B784D2B07D166
:100DC0003B6B3C221A707B6B35221A7003F099BE84
:100DD0007F4B1B780293FB8A01930123009300232E
:100DE0000022FF21532003F037FFFC2303F093BEC2
:100DF0007B7D072B0FD9764B1B780293FB8A0193DF
:100E00000223009300230022FF21532003F024FF3C
:100E1000F92303F080BE7B6B1B785AB27B7D0121E6
:100E200001FA03F35BB213435BB2DAB27B6B1A7065
:100E300003F067BE3B7D002B05D03B6B3A7D1A70FB
:100E4000012303F068BE624B1B78184603F070FE66
:100E500003467B757B7DFF2B40F00A81FB6B1B7883
:100E6000002B40F0F4805A4B1B78472B06D1BB6B0C
:100E70001B8801339AB2BB6B1A80DEE0544B1B789F
:100E80003E2B0AD1FB6B05221A70534B1A78514B3B
:100E90001A70524B04221A70F4E04D4B1B785E2BF3
:100EA00015D1FB6B05221A704B4B1B7803F04003E6
:100EB000002B04D07B6C1B685A1C7B6C1A60464B61
:100EC0001A78444B1A70454B08221A70DAE0404BEE
:100ED0001B78562B1BD1FB6B05221A703E4B1B78DF
:100EE00003F04003002B0AD07B6C1B68C3F30B0399
:100EF000012B04D97B6C1B685A1E7B6C1A60364B25
:100F00001A78344B1A70354B02221A70BAE0304B03
:100F10001B78482B07D1FB6B05221A707B6C6FF096
:100F20007F421A60AEE02A4B1B784C2B06D1FB6B3C
:100F300005221A707B6C00221A60A3E0244B1B78F8
:100F4000532B03D17B6C03221A601EE0204B1B78CD
:100F5000502B03D17B6C02221A6016E01C4B1B78CD
:100F6000542B03D17B6C01221A600EE0184B1B78C6
:100F7000522B03D17B6C08221A6006E0144B1B78BD
:100F80004D2B0ED17B6C05221A60124B1B7843F05F
:100F90004003DAB20F4B1A70FB6B02221A7003F097
:100FA000B0BD0B4B1B784F2B1ED10A4B1B7843F067
:100FB0000803DAB2074B1A70FB6B03221A707B6CC2
:100FC0001B68084A13607B6C00221A6003F099BD0D
:100FD0000D0500200C050020BD0B0020BE0B0020DD
:100FE000C40B0020884500209C4B1B782A2B17D16E
:100FF0009B4B1A789B4B1A70FB6B04221A709A4B0E
:101000001B7803F01003002B05D1974B1B7843F09E
:101010000103DBB200E00123934A137003F071BDBA
:101020008E4B1B783F2B0DD18E4B1B7843F010035A
:10103000DAB28C4B1A7000E000BFFB6B00221A7012
:1010400003F05FBD854B1B782C2BF5D000E000BF73
:10105000824B1B780293FB8A0193012300930023A8
:1010600000227821532003F0F7FDFB2303F053BD4A
:101070007B6C1A687B7D1146184603F043FF0246DD
:101080007B6C1A60FB6B1B780133DAB2FB6B1A7056
:10109000FB6B1B78052B43F22185BB6B1B88B3F5DB
:1010A000107F12D33B6B20221A706C4B1B7802937B
:1010B000FB8A01930323009300230022782153200D
:1010C00003F0CAFDFA2303F026BD664B1B7803F03C
:1010D0000803002B10D07B6C1B689AB2BB6B1A8084
:1010E000624B1A687B6C1A605E4B1B7823F0080316
:1010F000DAB25C4B1A7039E15A4B1A78584B1A70B5
:10110000594B1B7803F00103002B6CD07B6C1B68E0
:10111000DAB2574B1A707B6C1B681A0A7B6C1A6028
:10112000514B1B7823F00103DAB24F4B1A70504B2E
:101130001B78012B40F219814B4B1B78012B36D9C0
:10114000494B1B7843F01003DAB2474B1A70464BF9
:101150001B7803F00203002B11D0424B1B7803F0E5
:101160004003002B0BD07B6C1B68C3F30B03012BDC
:1011700005D97B6C1B685A1E7B6C1A6017E03A4BD2
:101180001B7803F00803002B11D0364B1B7803F0BB
:101190004003002B0BD07B6C1B68C3F30B03B3F530
:1011A000107F04D27B6C1B685A1C7B6C1A60BB6B73
:1011B0001B881A462E4B1B781344013B2D4A12887C
:1011C000934204DC2A4B1B78023BDBB209E0294B3B
:1011D0001B88DAB2BB6B1B88DBB2D31ADBB2013BD4
:1011E000DBB2234A13701F4B1B7803F04003002B24
:1011F0006FD07B6C1B68C3F30B03B3F5107F07D371
:101200007B6C1A681C4B134003F23F227B6C1A6004
:101210007B6C1B6803F40023002B2FD07B6B1878AA
:101220007B6C1B681B0BDBB203F00703DCB2BB6BF0
:101230001D887B6C1B689BB2C3F30B039BB20C4AEB
:101240001278094909780291019200932B462246AF
:101250000146F86804F032FB33E000BF0D050020C2
:10126000BD0B00200C050020BE0B0020884500208F
:10127000C40B00202400002000F0FF007B6B1C78D2
:101280007B6C1B681B0BDBB203F00703DDB2BB6B8F
:101290001E887B6C1B689BB2C3F30B039BB27A6CFA
:1012A0001268120CD2B297490978974800780390D7
:1012B00002910192009333462A462146F86804F0D1
:1012C000B7FC924B1B7823F04003DAB28F4B1A70B5
:1012D0002FE08E4B1B7803F01003002B1CD07B6B90
:1012E0001978BB6B1A887B6C1868864B1B78009347
:1012F0000346F86804F0B8FD03469AB2844B1B8895
:1013000013449AB2824B1A80804B1B7823F010034F
:10131000DAB27E4B1A700CE07B6B1978BB6B1A88C3
:101320007B6C1868774B1B7800930346F86804F0D1
:10133000DFF9BB6B1A88734B1B789BB213449BB2CB
:1013400001339AB2BB6B1A803B6C1A88BB6B1B884B
:101350009A420BD2BB6B1A886E4B1B889A4205D8F7
:10136000BB6B1A883B6C1A8000E000BF654B002203
:101370001A70FB6B00221A7003F0B0BB664B1B782F
:10138000184603F0D5FB03467B757B7DFF2B43D1CD
:10139000614B1B78502B2AD17B6C1B68B3F5107FF7
:1013A00010D95D4B1B780293FB8A019302230093B3
:1013B000002300225221532003F04EFC7B6C4FF49B
:1013C00010721A60BB6B00221A807B6C1B689AB289
:1013D0003B6C1A807B6C1A6813465B001344DB007D
:1013E0001A467B6C1A603B6B38221A7020E04A4B1D
:1013F0001B78512B03F07483474B1B780293FB8AB5
:10140000019301230093002300225221532003F073
:1014100023FCFB2303F07FBB7B6C1A687B7D1146AA
:10142000184603F06FFD02467B6C1A6003F058BB50
:1014300012E0FB8A0133FB82BB6B1B881A46FB68F8
:101440001344FA8AB9680A4412781A70BB6B1B8875
:1014500001339AB2BB6B1A80BB6B1B881A467B6C3C
:101460001B689A4204D23B681B88FA8A9A42E0D9E8
:10147000BB6B1B881A467B6C1B689A42C3F0328395
:101480003B6B20221A70012303F045BB224B1B78D3
:10149000184603F04DFB03467B757B7DFF2B40F028
:1014A000B5817B6C1B68DAB21C4BA3FB0213D90914
:1014B0000B461B025B1AD31ADAB27B6B1A707B6C79
:1014C00000221A607B6B1B78002B29D1124B1B78F2
:1014D000502B07D17B6B1F221A703B6B3B221A707B
:1014E00003F00FBB0C4B1B780293FB8A0193012383
:1014F0000093002300220021462003F0ADFBFC23D3
:1015000003F009BBC40B0020BE0B00200C0500201B
:101510000A050020240000200D0500208180808025
:10152000A94B1B785BB2002B80F25E817B6B1B7832
:10153000013B122B00F2378101A252F823F000BFC9
:101540008D150008D315000835160008351600085B
:10155000351600083516000835160008A7170008CC
:101560008D160008A7170008A7170008A71700087E
:10157000A7170008A7170008A71700089916000862
:101580009916000869170008691700088F4B1B7827
:10159000502B0ED17B6B00221A703B6B3D221A70D0
:1015A0008B4B1B789B08DBB2013BDAB2FB6B1A70EA
:1015B00038E1864B1B780293FB8A01930123009349
:1015C000002300220121462003F046FBFC2303F008
:1015D000A2BA7B6B22221A7000237B7506E07B7D0A
:1015E0007C4A0021D1547B7D01337B757B7D0C2BA4
:1015F000F5D93B7D002B05D03B6B3A7D1A70222339
:1016000003F089BA714B1B78502B03D13B6B4422FA
:101610001A7007E16D4B1B780293FB8A019301233B
:101620000093002300220221462003F015FBFB2338
:1016300003F071BA00237B7506E07B7D654A0021CB
:10164000D1547B7D01337B757B7D0C2BF5D95F4BB2
:101650001B78502B09D13B6B44221A707B6B1B7893
:101660002033DAB27B6B1A70DCE07B6B1978574B56
:101670001B780293FB8A019301230093002300222D
:10168000462003F0E9FAFB2303F045BA3B6B202226
:101690001A70282303F03FBA7B6B1B78103BDAB239
:1016A0007B6B1A704C4B00221A604C4B00221A7054
:1016B000BB6B00221A80454B1B78512B09D13B6B29
:1016C0004E221A707B6B1B785B33DAB27B6B1A701D
:1016D000A8E03E4B1B78502B0AD17B6B1B785B3309
:1016E000DAB23B6B1A703E4B1A687B6C1A6099E059
:1016F000364B1B784E2B12D17B6B1B78002B0ED1F7
:101700003B6B5B221A70374B1B7843F00103DAB254
:10171000344B1A70324B1A687B6C1A6082E02B4B88
:101720001B78482B0DD17B6B1B785B33DAB23B6B9C
:101730001A70FB6B01221A70294B1A687B6C1A60B5
:1017400070E07B6B1B780833D9B2204B1B78029377
:10175000FB8A01930123009300230022462003F01B
:101760007BFAFB2303F0D7B9184B1B78502B09D118
:101770007B6B1B781933DAB27B6B1A703B6B3B22A5
:101780001A704FE07B6B1978104B1B780293FB8A21
:1017900001930123009300230022462003F05CFA0A
:1017A000FC2303F0B8B9094B1B780293FB8A019321
:1017B0000123009300230022FF21462003F04CFA6E
:1017C000FC2303F0A8B900BF2A0000200D0500206B
:1017D000E0450020E845002088450020BD0B0020A2
:1017E000180900200C050020002302930023019318
:1017F0000523009300230022FF21462003F02CFA4A
:101800003B6B2E221A70012303F085B97B6C1A689A
:101810007B7D1146184603F075FB02467B6C1A600F
:1018200003F06FB903F06DB9BD4B1B78184603F098
:101830007FF903467B757B7DFF2B40F088827B6CB4
:101840001B68DAB2B74BA3FB0213D9090B461B0284
:101850005B1AD31ADAB27B6B1A707B6C00221A60A7
:101860007B6B1B78502B00F2628201A252F823F0AE
:10187000B5190008091A00082F1D00082F1D0008BF
:101880003F1A0008DF1A0008DF1A0008DF1A0008F4
:101890005F1B0008BB1B0008E51B00082F1D00088C
:1018A0002F1D00082F1D00082F1D00082F1D0008E8
:1018B0002F1D00082F1D00082F1D00082F1D0008D8
:1018C0002F1D00082F1D00082F1D00082F1D0008C8
:1018D0002F1D00082F1D00082F1D00082F1D0008B8
:1018E0002F1D00082F1D00082F1D00082F1D0008A8
:1018F0002F1D00082F1D00082F1D00082F1D000898
:101900002F1D0008E51B0008211C0008211C0008F1
:10191000211C0008211C00082F1D00082F1D000895
:101920002F1D00082F1D00082F1D00082F1D000867
:10193000211C0008211C0008211C00082F1D000884
:101940002F1D0008211C0008791C0008AF1C00088E
:101950002F1D00082F1D00082F1D00082F1D000837
:101960002F1D00082F1D00082F1D00082F1D000827
:101970002F1D00082F1D00082F1D0008C51C000882
:10198000C51C0008C51C00082F1D00082F1D0008DD
:101990002F1D00081D1D00082F1D00082F1D000809
:1019A0002F1D00082F1D00082F1D00082F1D0008E7
:1019B000C51C0008BB6B00221A80594B1B78502BAA
:1019C00003D0574B1B78482B03D13B6B49221A702D
:1019D000C9E1534B1B78512B06D13B6B48221A703F
:1019E0007B6B00221A70BEE14D4B1B780293FB8A81
:1019F000019301230093002300220021472003F0DC
:101A00002BF9FC2303F087B8454B1B78502B06D1EC
:101A10007B6B1D221A703B6B3B221A70A3E1404B7B
:101A20001B780293FB8A0193012300930023002279
:101A30000121472003F010F9FC2303F06CB8384B68
:101A40001B78502B03D0364B1B78482B06D17B6B71
:101A500000221A703B6B30221A7084E1304B1B78E5
:101A60004E2B0DD17B6B00221A703B6B30221A700B
:101A70002D4B1B7843F00103DAB22B4B1A7072E145
:101A80003B7D002B1BD03B6B3A7D1A70264B1B789D
:101A900003F02003002B0FD0244B1B781A46244B55
:101AA000002123F81210214B1B781A46214B0A21E2
:101AB0009954012303F02FB8032303F02CB8184BDB
:101AC0001B780293FB8A01930123009300230022D9
:101AD0000421472003F0C0F8FC2303F01CB87B6B03
:101AE0001B78043BDAB27B6B1A700D4B1B78502BC2
:101AF00003D00B4B1B78482B03D13B6B30221A7061
:101B000031E1074B1B784E2B16D13B6B30221A70FC
:101B1000054B1B7843F00103DAB2034B1A7022E144
:101B20000D050020818080800C0500200805002024
:101B3000000F0020BC0E00207B6B1B780433D9B251
:101B40008A4B1B780293FB8A0193012300930023A5
:101B50000022472003F080F8FC2302F0DCBF7B6BFF
:101B600000221A70814B1B78502B03D07F4B1B78BF
:101B7000482B03D13B6B42221A70F4E07B4B1B785D
:101B80004E2B0AD13B6B42221A70794B1B7843F0E3
:101B90000103DAB2764B1A70E5E0744B1B780293BE
:101BA000FB8A019301230093002300220821472090
:101BB00003F052F8FC2302F0AEBF3B6B20221A70F8
:101BC0006B4B1B7803F02003002B08D0694B1B786C
:101BD0001A46694B0C219954012302F09CBF0D2336
:101BE00002F099BF614B1B78512B09D13B6B4A2204
:101BF0001A70604B00221A707B6B00221A70B2E0E0
:101C00005A4B1B780293FB8A019301230093002314
:101C100000222521472003F01FF8FB2302F07BBFA1
:101C2000524B1B78502B03D0504B1B78482B03D1C1
:101C30003B6B4D221A7096E04C4B1B784E2B0AD111
:101C40003B6B4D221A704A4B1B7843F00103DAB20A
:101C5000474B1A7087E07B6B1978444B1B780293D3
:101C6000FB8A01930123009300230022472002F006
:101C7000F3FFFC2302F04FBF3C4B1B78502B06D1E7
:101C80007B6B1C221A703B6B3B221A706BE0374B4C
:101C90001B780293FB8A0193012300930023002207
:101CA0003621472002F0D8FFFC2302F034BF314B2D
:101CB00040221A70BB6B00221A807B6B00221A70C4
:101CC00000F0D2BF294B1B78502B03D0274B1B7839
:101CD000482B03D13B6B4C221A7044E0234B1B78FA
:101CE0004E2B0AD13B6B4C221A70214B1B7843F0D0
:101CF0000103DAB21E4B1A7035E07B6B19781B4B6F
:101D00001B780293FB8A0193012300930023002296
:101D1000472002F0A1FFFC2302F0FDBE3B6B202216
:101D20001A707B6B00221A70192302F0F4BE0F4B5D
:101D30001B780293FB8A0193012300930023002266
:101D4000FF21472002F088FFFC2302F0E4BE7B6CF9
:101D50001A687B7D1146184603F0D4F802467B6C66
:101D60001A6002F0CEBE02F0CCBE00BF0D0500200E
:101D70000C05002008050020BC0E0020D94B1B7864
:101D8000184602F0D5FE03467B757B7DFF2B40F0A5
:101D9000BE837B6C1B68DAB2D34BA3FB0213D90959
:101DA0000B461B025B1AD31ADAB27B6B1A707B6C80
:101DB00000221A607B6B1B78023B962B00F2978304
:101DC00001A252F823F000BF252000085D20000882
:101DD0005D2000085D200008A9200008EF2400080D
:101DE000EF240008EF240008EF240008EF24000887
:101DF000EF240008EF240008EF240008EF24000877
:101E00005D2000085D200008EF240008EF24000892
:101E1000EF240008EF240008EF240008EF24000856
:101E2000EF240008EF240008EF240008EF24000846
:101E3000EF240008EF240008EF240008EF24000836
:101E4000EF240008EF240008EF240008DF2000083A
:101E50004F2100084F210008EF240008EF2400085C
:101E6000EF240008EF240008EF240008EF24000806
:101E7000EF240008EF240008EF240008EF240008F6
:101E8000EF240008EF240008EF240008EF240008E6
:101E9000EF240008EF240008EF240008EF240008D6
:101EA000EF240008EF240008EF240008EF240008C6
:101EB000EF240008EF240008EF240008EF240008B6
:101EC000EF240008EF240008EF240008EF240008A6
:101ED000EF240008F5210008132200081B22000847
:101EE000EF240008EF240008EF240008EF24000886
:101EF000EF240008EF240008EF240008EF24000876
:101F0000EF240008EF240008EF240008EF24000865
:101F1000EF240008EF240008EF240008EF24000855
:101F2000EF240008EF240008EF240008EF24000845
:101F3000EF240008EF240008EF240008EF24000835
:101F4000EF240008EF240008EF240008EF24000825
:101F5000EF240008EF240008EF240008EF24000815
:101F6000EF240008EF240008EF240008EF24000805
:101F7000EF240008EF240008EF240008EF240008F5
:101F8000EF240008EF240008EF240008EF240008E5
:101F9000EF240008EF240008EF240008EF240008D5
:101FA000EF240008EF240008EF240008EF240008C5
:101FB000EF240008EF240008EF240008EF240008B5
:101FC000EF240008EF240008EF240008EF240008A5
:101FD000EF240008EF24000855230008EF24000830
:101FE0000524000813240008EF240008EF2400084B
:101FF000EF240008EF240008EF240008EF24000875
:10200000BB2200084D230008EF240008EF2400083D
:10201000EF240008EF240008C1230008EF24000883
:10202000212400083B7D002B08D03B6B3A7D1A70C1
:102030007B6C01221A60082302F06DBD294B1B78CE
:102040000293FB8A019301230093002300220221C3
:102050004D2002F001FEFB2302F05DBD3B7D002B15
:1020600009D03B6B3A7D1A707B6C4FF6FF721A6099
:10207000172302F050BD1B4B1B78502B03D13B6B39
:102080004B221A704FE27B6B1978164B1B78029328
:10209000FB8A019301230093002300224D2002F0CC
:1020A000DBFDFB2302F037BD0E4B1B78502B06D116
:1020B0003B6B39221A707B6B01221A7033E2094B99
:1020C0001B780293FB8A01930123009300230022D3
:1020D00006214D2002F0C0FDFB2302F01CBD0023B1
:1020E0007B750AE00D050020818080807B7DAC4AF5
:1020F0000021D1547B7D01337B757B7D0C2BF5D981
:102100003B7D002B08D03B6B3A7D1A707B6B002225
:102110001A70212302F0FFBCA24B1B78502B06D172
:102120003B6B44221A707B6B21221A70FBE19D4BA2
:102130001B780293FB8A0193012300930023002262
:1021400023214D2002F088FDFB2302F0E4BC7B6BD1
:102150001B78243BDAB27B6B1A703B7D002B17D0C7
:102160003B6B3A7D1A70904B1B7803F02003002BD9
:102170000BD08E4B1B781A467B6B1B780833D9B279
:102180008B4B9954012302F0C6BC1E2302F0C3BC42
:10219000844B1B78502B03D0824B1B78482B06D1E5
:1021A0007B6B1E221A703B6B42221A70BBE17D4B87
:1021B0001B784E2B0DD17B6B1E221A703B6B42227B
:1021C0001A70794B1B7843F00103DAB2764B1A7020
:1021D000A9E17B6B1978734B1B780293FB8A0193FF
:1021E00001230093002300224D2002F035FDFB2344
:1021F00002F091BC6F4B00221A803B6B2E221A70AA
:102200003B7D002B02D03B6B3A7D1A70012302F01C
:1022100082BC7B6B16221A7002E53B7D002B21D01D
:102220003B6B3A7D1A70604B1B7803F02003002B48
:1022300015D05E4B1B781A465F4B002123F8121015
:102240005A4B1B781A465A4B06219954574B1B7808
:102250001A465A4B01219954012302F05CBC082311
:1022600002F059BC4F4B1B78502B03D04D4B1B78C1
:10227000482B03D13B6B50221A7054E1494B1B7819
:102280004E2B0AD13B6B50221A70474B1B7843F000
:102290000103DAB2444B1A7045E1424B1B780293BA
:1022A000FB8A0193012300930023002247214D2044
:1022B00002F0D2FCFB2302F02EBC3A4B1B78502BD1
:1022C00003D0384B1B78482B03D13B6B46221A7046
:1022D00029E1344B1B784E2B0AD13B6B46221A70F6
:1022E000314B1B7843F00103DAB22F4B1A701AE11D
:1022F0003B7D002B1AD03B6B3A7D1A702A4B1B7822
:1023000003F02003002B06D0284B1B781A46284BDD
:102310000E21995407E008F04FFD03460C4618467D
:1023200021460CF00DFF012302F0F5BB1D4B1B787D
:102330000293FB8A01930123009300230022902142
:102340004D2002F089FCFB2302F0E5BB7B6B2B22C6
:102350001A7065E4134B1B78502B06D17B6B2F2230
:102360001A703B6B3B221A70DDE00E4B1B78512B31
:1023700006D13B6B36221A707B6B03221A70D2E0B7
:10238000084B1B780293FB8A0193012300930023DF
:10239000002286214D2002F05FFCFC2302F0BBBB33
:1023A000E84500200D0500200C0500200805002050
:1023B000BC0E00200A050020000F0020140C002095
:1023C000AA4B1B78512B0CD13B6B5D221A70A84B8A
:1023D00000221A70BB6B00221A807B6B00221A70DD
:1023E000A1E07B6B1978A14B1B780293FB8A0193C8
:1023F00001230093002300224D2002F02DFCFB233B
:1024000002F089BB7B6B1B7843F01003DAB27B6B65
:102410001A707B6B1B7843F02003DAB27B6B1A7067
:102420007B6B1B7883F02003DAB27B6B1A703B7DE9
:10243000002B31D03B6B3A7D1A708E4B1B7803F02A
:102440002003002B1CD08A4B1B781A468A4B002194
:1024500023F81210864B1B781A467B6B1B7803F00F
:102460000103DBB2C3F10603D9B2844B9954804B0C
:102470001B781A46824B01219954012302F04BBB71
:102480007B6B1B7803F00103002B02D02D2302F09D
:1024900042BB082302F03FBB744B1B78502B03D187
:1024A0003B6B34221A703EE0704B1B78512B0DD1E0
:1024B0003B6B45221A70BB6B00221A807B6B1B782A
:1024C00003F03003DAB27B6B1A702CE07B6B197867
:1024D000664B1B780293FB8A019301230093002330
:1024E00000224D2002F0B8FBFB2302F014BB5F4B2F
:1024F0001B780293FB8A019302230093002300229E
:10250000FF214D2002F0A8FBF92302F004BB7B6CF5
:102510001A687B7D1146184602F0F4FC02467B6C7B
:102520001A6002F0EEBA02F0ECBA504B1B78184673
:1025300002F0FEFA03467B757B7D022B40F2A480FD
:102540003B6B3B221A707B6C00221A60474B1B7856
:10255000492B0BD13B6B3A221A707B6C4FF02A321D
:102560001A60FB6B00221A7002F0CBBA3F4B1B784B
:10257000442B04D17B6B0F221A7002F0C2BA3B4B82
:102580001B78422B07D13B6B3C221A707B6B1022CD
:102590001A7002F0B6BA354B1B78522B04D17B6B04
:1025A00011221A7002F0ADBA304B1B78542B10D1A7
:1025B000FB6B1B78013BDBB203F00F03DAB2FB6B62
:1025C0001A703B6B3E221A707B6B04221A7002F069
:1025D00098BA264B1B78572B07D13B6B3C221A70BD
:1025E0007B6B13221A7002F08CBA204B1B78462B9F
:1025F00004D17B6B16221A7002F083BA1B4B1B7836
:10260000412B10D13B6B47221A701E4B47221A7088
:10261000FB6B1B78013BDBB203F00F03DAB2FB6B01
:102620001A7002F06EBA114B1B78532B04D17B6BDE
:102630002E221A7002F065BA0C4B1B78432B04D182
:102640003B6B27221A7002F05CBA084B1B7802938E
:10265000FB8A01930123009300230022FF215520D0
:1026600002F0FAFAFB2302F056BA00BF0D05002073
:10267000080500200C050020000F0020BC0E0020E3
:10268000140C0020BD0B0020FB6B1A787B7D1343DC
:10269000DAB2FB6B1A7002F034BAAA4B00221A703D
:1026A000A94B1B78492B0DD13B6B3C221A70A74BD1
:1026B0007F221A70A64B00221A707B6B31221A708F
:1026C00002F01FBAA04B1B78542B07D1FB6B0C22D6
:1026D0001A703B6B61221A7002F013BA9A4B1B7886
:1026E000522B0ED19B4B1B7843F00203DAB2994B6D
:1026F0001A70FB6B0C221A703B6B61221A7002F08D
:1027000000BA914B1B78532B02D107F099FD74E569
:102710008D4B1B780293FB8A0193012300930023C6
:1027200000224321552002F097FAFB2302F0F3B96F
:10273000854B1B780A2B04D0834B1B780D2B42F062
:10274000D3813B6B20221A7002F0CEB97E4B1B78EE
:10275000184602F0EDF903467B757B7DFF2B3DD1DA
:102760003B7D002B09D03B6B3A7D1A70794B1B786F
:1027700003F02003002B2CD012E07B6B1B7804337A
:10278000D9B2714B1B780293FB8A0193012300930A
:1027900001230022472002F05FFAFB2302F0BBB9BD
:1027A0007B6B1B78012B14D86B4B1B781A467B6C08
:1027B0001B6899B2694B23F81210674B1B781A46B5
:1027C0007B6B1B780A33D9B2654B9954012302F015
:1027D000A2B97B6B1B78033302F09DB97B6C1A683E
:1027E0007B7D1146184602F0A1FB02467B6C1A6005
:1027F00002F087B9544B1B78184602F099F903464A
:102800007B757B7DFF2B2ED13B7D002B07D03B6B57
:102810003A7D1A707B6B1B78123302F07CB97B6BAC
:102820001B78002B0FD0484B1B780293FB8A019337
:10283000012300930123002219214D2002F00CFAFC
:10284000FB2302F068B9404B1B780293FB8A01938B
:1028500001230093012300220821472002F0FCF904
:10286000FB2302F058B97B6C1A687B7D1146184631
:1028700002F05CFB02467B6C1A6002F042B9324BFC
:102880001B78184602F054F903467B757B7DFF2BBD
:1028900072D13B7D002B07D03B6B3A7D1A70FB6BEE
:1028A0001B78002B17D010E07B6B1978264B1B7818
:1028B0000293FB8A019301230093032300224D20FE
:1028C00002F0CAF9FB2302F026B97B6C1B684FF6B5
:1028D000FF7293420ED17B6B1B7803F02003002B19
:1028E00003D0204B1B881A4602E01F4B1B881A4658
:1028F0007B6C1A60174B1B7803F02003002B35D03C
:10290000154B1B781A467B6C1B6899B2134B23F846
:102910001210114B1B7819467B6B1B7803F02003B8
:10292000002B09D17B6B1B7803F01003002B01D027
:10293000252302E0042300E00123094A5354012324
:1029400002F0E9B8250900200D0500202409002027
:10295000280900200C05002008050020000F002099
:10296000BC0E00201446002010460020FB6B042201
:102970001A70092302F0CFB8FB6B1B780133DAB26F
:10298000FB6B1A70FB6B1B78042B02D9F72302F048
:10299000C2B87B6C1A687B7D1146184602F0B2FA09
:1029A00002467B6C1A6002F0ACB8A74B1B78184645
:1029B00002F0BEF803467B757B7DFF2B40F0E08084
:1029C0007B6B1B7803F00203002B00F085803B7DBE
:1029D000002B09D03B6B3A7D1A709C4B1B7803F09F
:1029E0002003002B57D00FE0974B1B780293FB8AF4
:1029F0000193012300930323012298214D2002F02B
:102A00002BF9FB2302F087B87B6B1B7803F00403E0
:102A1000002B37D07B6C1B684FF6FF72934211D1AD
:102A20008B4B1B7819467B6B1B7803F02003002B24
:102A300002D0884B1B8801E0874B1B88874A22F80D
:102A4000113008E0824B1B781A467B6C1B6899B2E8
:102A5000824B23F812107E4B1B7819467B6B1B7838
:102A600003F02003002B09D17B6B1B7803F01003CC
:102A7000002B01D0252302E0042300E00123784A43
:102A8000535405E0724B1B781A46754B002199543C
:102A9000012302F040B87B6B1B7803F00403002B8A
:102AA00002D1012302F037B87B6C1B684FF6FF722E
:102AB00093420ED17B6B1B7803F02003002B03D0D5
:102AC000644B1B881A4602E0634B1B881A467B6CDA
:102AD0001A60092302F01FB85B4B1B78502B2DD1D5
:102AE0007B6B1B7803F00103002B27D17B6B1B78DA
:102AF00043F00303DAB27B6B1A70FB6B1B78002B7D
:102B000011D00CF027FB0346FA6B127893FBF2F11D
:102B100002FB01F29B1A9BB29B009BB25B429AB2F2
:102B2000BB6B1A8070E04F4B1B789BB29B009BB233
:102B3000C3F104039AB2BB6B1A8065E0424B1B7869
:102B40004E2B0DD17B6B1B7803F00103002B07D1BB
:102B50003E4B1B7843F00103DAB23C4B1A7053E052
:102B6000394B1B780293FB8A0193012300930023C6
:102B7000012298214D2002F06FF8FB2301F0CBBF1A
:102B80007B6B1B7803F00103002B27D0BB6B1B88EA
:102B900001339AB2BB6B1A80BB6B1B88002B01F010
:102BA000A587BB6B1B88042B01F2A0877B6C1A687E
:102BB0007B7D1146184602F0A5F902467B6C1A602F
:102BC000BB6B1B88042B41F091877B6B1B7843F018
:102BD0000403DAB27B6B1A7001F088BFFB6B1B78C1
:102BE0001A467B7D1146184602F0A0F90346DAB278
:102BF000FB6B1A70FB6B1B78C82B41F27787FB6B62
:102C0000C8221A7001F072BF01F070BF0E4B1B7822
:102C1000184601F08DFF03467B757B7DFF2B40F04E
:102C2000DD80094B1B78522B04D17B6B04221A7078
:102C300001F067BF044B1B78482B15D17B6B082232
:102C40001A7001F05EBF00BF0D0500200C050020CA
:102C5000080500201446002010460020000F002028
:102C6000BC0E0020A8060020A14B1B7823F00D030A
:102C7000DAB29F4B1A703B6B35221A707B6B1B7854
:102C800003F00403002B0BD09A4B1B7803F00103D5
:102C9000002B05D1984B1B781033DAB2964B1A7083
:102CA000954B1B781A46944B1B781946934B5B5CEB
:102CB00003F07F03D9B2914B9954914B1B78542B5D
:102CC00007D13B6B2E221A70BB6B28221A8001F0B1
:102CD00018BF8B4B1B78502B04D1BB6B01221A8081
:102CE00001F00FBF864B1B784C2B04D1BB6B02222B
:102CF0001A8001F006BF824B1B784A2B04D1BB6BB4
:102D000003221A8001F0FDBE7D4B1B78492B04D1B4
:102D1000BB6B04221A8001F0F4BE794B1B784F2B59
:102D200004D1BB6B05221A8001F0EBBE3B7D002B6A
:102D300012D03B6B3A7D1A706F4B1B781A466E4B64
:102D40001B7819466D4B5B5C63F07F03D9B26B4B0C
:102D50009954012301F0DFBE694B1B784D2B0BD139
:102D6000634B1B7843F02003DAB2614B1A703B6B64
:102D700025221A7001F0C5BE614B1B78472B0BD181
:102D80005B4B1B7843F02003DAB2594B1A703B6B54
:102D900024221A7001F0B5BE574B1B783F2B0DD87B
:102DA000574B1B780293FB8A019301230093002366
:102DB000012296214D2001F04FFF0CE0504B1B7873
:102DC0000293FB8A01930123009300230122372100
:102DD000472001F041FFFB2301F09DBE7B6B1B7878
:102DE000082B15D1444B1B781B01DAB2424B1A70E9
:102DF000414B1A787B7D1343DAB23F4B1A703E4B3E
:102E00001B7803F03F03DAB23B4B1A7001F079BE36
:102E1000384B1B7803F00103002B17D07B7D013B5F
:102E2000DBB203F007037B757B7D012202FA03F31B
:102E30005BB203F03F035AB22F4B1B785BB21343D4
:102E40005BB2DAB22C4B1A7001F05BBE2A4A7B7D72
:102E5000137001F056BE2A4B1B78184601F068FE2D
:102E600003467B757B7DFF2B30D13B7D002B07D04C
:102E70003B6B3A7D1A70FB6B1B78002B1ED017E062
:102E80007B6B1B789B10DBB203F00103DBB20133D9
:102E9000DAB21B4B1B780293FB8A01930123009348
:102EA000032396214D2001F0D7FEFB2301F033BE12
:102EB0007B6C1B684FF6FF72934204D1114B1B8849
:102EC0001A467B6C1A600A2301F025BEFB6B1B7847
:102ED0000133DAB2FB6B1A707B6C1A687B7D11468A
:102EE000184602F00FF802467B6C1A6001F009BE2A
:102EF0000C050020A406002008050020BC0E0020C0
:102F00000D050020144600209A4B1B78184601F04E
:102F10000FFE03467B757B7DFF2B40F0D980954BE0
:102F20001B78522B09D17B6B1B7803F00103002B1C
:102F300003D17B6B04221A7019E18E4B1B78482B4E
:102F400009D17B6B1B7803F00103002B03D17B6B52
:102F500080221A700BE1874B1B78502B0DD17B6BB5
:102F60001B7803F00103002B07D17B6B1B7843F028
:102F70000103DAB27B6B1A70F9E07E4B1B784E2BA3
:102F800014D17B6B1B7803F00103002B0ED17B6BFC
:102F90001B7843F00103DAB27B6B1A70764B1B7817
:102FA00043F00103DAB2744B1A70E0E0714B1B7806
:102FB0003E2B0DD17B6B1B7803F00103002B07D058
:102FC0007B6B1B7843F00203DAB27B6B1A70CEE0A6
:102FD000684B1B783C2B0DD17B6B1B7803F00103F6
:102FE000002B07D07B6B1B7823F00203DAB27B6BDC
:102FF0001A70BCE05F4B1B783D2B0DD17B6B1B78AF
:1030000003F00103002B07D07B6B1B7843F00A030E
:10301000DAB27B6B1A70AAE0564B1B78212B14D1C5
:103020007B6B1B7803F00103002B0ED07B6B1B78AE
:1030300043F00803DAB27B6B1A707B6B1B7823F0CA
:103040000203DAB27B6B1A7091E03B7D002B03D058
:103050003B6B3A7D1A7026E0464B1B783F2B0AD11A
:103060007B6B1B7843F01003DAB27B6B1A703B6BFF
:103070002E221A7017E07B6B1B789B10DBB203F0DB
:103080000103DBB20133DAB23A4B1B780293FB8ABD
:1030900001930123009300232521472001F0DCFD4B
:1030A000FB2301F038BD7B6B1B7803F00403002B7E
:1030B0000BD0324B1B7803F00103002B05D1304BB2
:1030C0001B781033DAB22E4B1A701A2301F023BD8D
:1030D0007B6B1B7803F00103002B0BD07B6C1A6811
:1030E0007B7D1146184601F021FF02467B6C1A6079
:1030F00001F007BD7B6B1B78802B15D1204B1B7813
:103100001B01DAB21E4B1A701D4B1A787B7D1343DC
:10311000DAB21B4B1A701A4B1B7803F03F03DAB27A
:10312000174B1A7001F0EDBC144B1B7803F0010330
:10313000002B17D07B7D013BDBB203F007037B75CF
:103140007B7D012202FA03F35BB203F03F035AB224
:103150000B4B1B785BB213435BB2DAB2084B1A70AD
:1031600001F0CFBC064A7B7D137001F0CABC01F0B0
:10317000C8BC00BF0D0500200C050020A4060020DF
:1031800008050020A94B1B78184601F0D1FC034626
:103190007B757B7DFF2B79D13B7D002B18D03B6B62
:1031A0003A7D1A707B6B1B78032B2DD1A04B00222C
:1031B0001A8000237B7507E07B7D9E4A002122F860
:1031C00013107B7D01337B757B7D012BF4D95AE095
:1031D000964B1B78502B07D17B6B1B78032B03D1AD
:1031E0007B6B00221A700FE0904B1B780293FB8AD6
:1031F0000193012300930023012286214D2001F039
:103200002BFDFB2301F087BCFB6B1B781A46894B17
:1032100033F812301BB2DB431AB2854BB3F90030DE
:1032200013401AB2824B1A80814BB3F900301A4610
:103230007B6C1B681340002B15D17B6C1B689AB20A
:103240007B4BB3F900309BB213439BB21AB2784B5D
:103250001A80FB6B1B781A467B6C1B6899B2754B06
:1032600023F812100FE0714B1B780293FB8A019335
:10327000022300930323012286214D2001F0ECFC60
:10328000F92301F048BC012301F045BC7B6B1B789E
:10329000012B14D87B7D03F007037B757B6C1B68C7
:1032A0007A7D012101FA02F21A437B6C1A607B6B72
:1032B0001B780133DAB27B6B1A7001F022BC7B6B96
:1032C0001B78032B17D17B7D012B0FD9574B1B7814
:1032D0000293FB8A0193022300930023012286219B
:1032E0004D2001F0B9FCF92301F015BCFB6B7A7D90
:1032F0001A7001F006BC4D4B1B780293FB8A0193B8
:10330000032300930323012286214D2001F0A4FC16
:10331000FA2301F000BC454B1B78184601F008FC6D
:1033200003467B757B7DFF2B53D13B7D002B05D066
:103330003B6B3A7D1A70012301F0EDBB3B4B1B78D0
:103340002D2B08D13C4B1B7843F00C03DAB23A4BDF
:103350001A7001F0CDBB354B1B782B2B0FD1364BA0
:103360001B7843F00803DAB2334B1A70324B1B78E8
:1033700023F00403DAB2304B1A7001F0B9BB2B4BC7
:103380001B78522B03D0294B1B78722B11D1FB6B6E
:1033900004221A700BF0DEFE0246284B1B88013314
:1033A00092FBF3F103FB01F3D31A1A467B6C1A600C
:1033B0001FE01E4B1B780293FB8A019301230093AD
:1033C000032300220021472001F046FCFB2301F0EB
:1033D000A2BB7B6C1A687B7D1146184601F092FDFA
:1033E00002467B6C1A60FB6B1B780133DAB2FB6B15
:1033F0001A70FB6B1B78032B41F27A83BB6B1B8823
:10340000072B1DD93B6B20221A70084B1B780293A7
:10341000FB8A01930323009303230022002147200A
:1034200001F01AFCFA2301F076BB00BF0D05002065
:10343000A6060020580C00200C0500205400002097
:103440007B6C1B68A04A1288934204D99E4B1B8850
:103450001A467B6C1A609D4B1B7803F00803002B07
:1034600009D1BB6B1B881A467B6C1B6899B2984BC1
:1034700023F812104FE0954B1B7803F00403002B48
:1034800026D0BB6B1B881846BB6B1B881A46904B1B
:1034900033F812301A467B6C1B689A4213D9BB6B07
:1034A0001B88BA6B12881146894A32F811107A6C5F
:1034B000126892B28A1A91B2854A22F81310844A8D
:1034C00032F8133000E00023814A22F8103022E065
:1034D000BB6B1B881946BB6B1B881A467C4B33F8A9
:1034E00012207B6C1B689BB213449AB2784B23F872
:1034F0001120BB6B1B881A46754B33F81220724B98
:103500001B889A4207D9BB6B1B881A466E4B1988D9
:103510006F4B23F812106D4B1B7823F00C03DAB2BB
:103520006A4B1A706B4B1B7843F00203DAB2694B9B
:103530001A70BB6B1B8801339AB2BB6B1A80FB6B92
:1035400000221A707B6C00221A6001F0D1BA624B23
:103550001B78184601F0ECFA03467B757B7DFF2B48
:1035600040F0A0807B6B1B7803F00203002B50D04F
:103570003B7D002B08D03B6B3A7D1A70FB6B002221
:103580001A70182301F0C7BA534B1B782D2B08D1A2
:103590004E4B1B7843F00C03DAB24C4B1A7001F01F
:1035A000B0BA4D4B1B782B2B0FD1484B1B7843F0F7
:1035B0000803DAB2454B1A70444B1B7823F004031E
:1035C000DAB2424B1A7001F09CBA434B1B78522B73
:1035D0000FD10BF0BFFD02463B4B1B88013392FB22
:1035E000F3F103FB01F3D31A1A467B6C1A6001F066
:1035F00088BA394B1B780293FB8A0193012300930D
:10360000012301220021472001F026FBFB2301F0CA
:1036100082BA314B1B78502B03D02F4B1B78482B91
:1036200009D17B6B1B7803F00103002B03D17B6B6B
:1036300003221A7061E0284B1B784E2B10D17B6B54
:103640001B7803F00103002B0AD17B6B03221A7055
:103650001E4B1B7843F00103DAB21C4B1A704CE08E
:103660001D4B1B78522B0DD17B6B1B7803F0010394
:10367000002B07D17B6B1B7843F00703DAB27B6B1F
:103680001A703AE0144B1B780293FB8A01930123D2
:103690000093002301220021472001F0DDFAFB23E3
:1036A00001F039BA7B6B1B7803F00103002B15D0B6
:1036B0007B6C1A687B7D1146184601F037FC024688
:1036C0007B6C1A6001F01DBA540000200C0500202C
:1036D000A40E0020580600200D050020BB6B1B889F
:1036E0001AB27B7D012101FA03F31BB213431BB213
:1036F0009AB2BB6B1A8001F004BA01F002BAA44B73
:103700001B78184601F014FA03467B757B7DFF2B6E
:103710001CD13B7D002B08D03B6B3A7D1A70FB6BB4
:1037200000221A70172301F0F6B97B6B1978984BB9
:103730001B780293FB8A0193012300930323002249
:103740004D2001F089FAFB2301F0E5B97B7D072BC1
:103750000BD87B6C1B687A7D40F2011101FA02F2F2
:103760001A437B6C1A6001F0CCB97B6B1978884BDB
:103770001B780293FB8A0193022300930323002208
:103780004D2001F069FAF92301F0C5B9804B1B788F
:10379000184601F0CDF903467B757B7DFF2B54D194
:1037A0003B7D002B05D03B6B3A7D1A700C2301F05A
:1037B000B2B9774B1B78572B0AD17B6C1B68194623
:1037C000012001F09FFB02467B6C1A6001F099B961
:1037D0006F4B1B78532B0AD17B6C1B681946022058
:1037E00001F090FB02467B6C1A6001F08AB9684BCD
:1037F0001B784B2B0AD17B6C1B681946032001F008
:1038000081FB02467B6C1A6001F07BB9604B1B7830
:10381000472B0AD17B6C1B681946042001F072FB10
:1038200002467B6C1A6001F06CB9594B1B7802930D
:10383000FB8A0193012300930323002206214D20DC
:1038400001F00AFAFB2301F066B97B6C1A687B7DF4
:103850001146184601F056FB02467B6C1A6001F0D7
:1038600050B94B4B1B78184601F062F903467B7543
:103870007B7DFF2B3CD13B7D002B0CD03B6B3A7DFD
:103880001A70FB6B00221A70424B1B7803F0200366
:10389000002B20D00FE03E4B1B780293FB8A019354
:1038A000012300930123002290214D2001F0D4F93F
:1038B000FB2301F030B9384B1B781A467B6C1B6830
:1038C00099B2364B23F81210334B1B781A46344BFF
:1038D0000D21995404E07B6C1B6818460BF030FCFA
:1038E0007B6C1B6818460BF02BFC012301F013B90D
:1038F0007B6C1A687B7D1146184601F017FB024667
:103900007B6C1A6001F0FDB83B7D002B08D03B6B4F
:103910003A7D1A70FB6B00221A700E2301F0FBB87F
:10392000FB6B1B78032B0FD9194B1B780293FB8A77
:10393000019301230093002300224921552001F027
:103940008BF9FB2301F0E7B8FB6B1B780133DAB28C
:10395000FB6B1A707B6C1B681B020D4A12781A44B1
:103960007B6C1A6001F0CDB8094B1B78184601F04A
:10397000DFF803467B757B7DFF2B5ED13B7D002B03
:1039800010D03B6B3A7D1A707B6B1B7801F0C3B88B
:103990000D0500200C05002008050020000F002068
:1039A000BC0E0020BA4B1B78502B01F0A380B84B03
:1039B0001B78482B01F09E80B54B1B784E2B08D10D
:1039C000B44B1B7843F00103DAB2B24B1A7001F02A
:1039D00091B87B6B1B78102B02D142237B751CE0C6
:1039E0007B6B1B78132B02D157237B7515E07B6B08
:1039F0001B78352B0FD1A64B1B780293FB8A0193C2
:103A000001230093002300224D21532001F024F9CB
:103A1000FB2301F080B843237B759D4B1B78797D98
:103A20000293FB8A01930123009300230022552077
:103A300001F012F9FB2301F06EB87B6C1A687B7DF4
:103A40001146184601F072FA02467B6C1A6001F0CA
:103A500051B83B7D002B05D03B6B3A7D1A70142387
:103A600001F059B87B6C1B68002B40F06D81884BCE
:103A70001B78303B2F2B00F2608101A252F823F01B
:103A8000513C00083B3D00083B3D00083B3D000821
:103A90003B3D00083B3D00083B3D00083B3D000826
:103AA0003B3D00083B3D00083B3D00083B3D000816
:103AB0003B3D00083B3D00083B3D00083B3D000806
:103AC0003B3D00082B3D0008653B0008793B0008A2
:103AD000B93C00083B3D00085D3B00083B3D000849
:103AE000333D0008D13B00083B3D00083B3D00084A
:103AF0003B3D0008893C00085F3C0008233D00086E
:103B0000993B00083B3D00086D3C0008BF3B0008A6
:103B10004F3B0008AD3B0008413B00083B3D00081F
:103B20003B3D00083B3D00083B3D00083B3D000895
:103B30007B3C00083B3D00083B3D0008433C00083F
:103B4000FB6B1B781946544806F09EF86EE2FB6B3F
:103B50001B781946514806F097F867E27B6C032200
:103B60001A605AE24E4B1B789AB2FB6B1B781946CF
:103B7000104601F022F859E27B6C00221A60494B92
:103B800000221A70BB6B00221A807B6B00221A7015
:103B90003B6B5F221A7040E2434B1B789AB2FB6B7F
:103BA0001B781946104601F008F83FE23F4B1A888F
:103BB000FB6B1B781946104600F0FFFF36E23C4BCA
:103BC0001A88FB6B1B781946104600F0F6FF2DE2B1
:103BD000384B1B680321184601F0CAF903461A4600
:103BE000FB6B1B7819461046FCF71CFD314B1B681C
:103BF0000221184601F0BCF903461A46FB6B1B78FC
:103C000019461046FCF70EFD2A4B1B680121184689
:103C100001F0AEF903461A46FB6B1B7819461046B5
:103C2000FCF700FD234B1B680021184601F0A0F9AA
:103C300003461A46FB6B1B7819461046FCF7F2FC4C
:103C4000F4E1FB6B1B7819462020FCF7EBFCEDE15F
:103C5000FB6B1B7819460020FCF7E4FCE6E1FB6BEC
:103C60001B7819460A20FCF7DDFCDFE1FB6B1B78B3
:103C700019460D20FCF7D6FCD8E1FB6B1B781946E2
:103C80005C20FCF7CFFCD1E17B6C01221A60C4E11F
:103C90000D0500200C05002008F3000814F30008AF
:103CA00026000020BC0B0020A80600200A050020EA
:103CB00072000020B40E0020A54B1B7803F07F0398
:103CC000012B06D1FB6B1B781946A24805F0DCFFDF
:103CD000A5E19F4B1B7803F00303022B06D1FB6B7E
:103CE0001B7819469C4805F0CFFF98E1984B1B784C
:103CF00003F00303032B06D1FB6B1B78194697488F
:103D000005F0C2FF8BE1924B1B7803F07F03042B7D
:103D100040F08581FB6B1B781946914805F0B4FF94
:103D20007DE17B6C02221A6077E17B6C04221A60D1
:103D300073E17B6C05221A606FE1FB6B1B781946FF
:103D4000884805F0A1FF71E17B6C1B68012B1BD13A
:103D5000854B1B78184600F0EBFE03467B757B7D98
:103D6000072B00F25E817B7D804A32F813301A46C1
:103D70007B6C1A607B6C1B689AB2FB6B1B781946D4
:103D8000104600F01AFF4CE17B6C1B68022B68D1D7
:103D9000754B1B78184600F0CBFE03467B757B7D88
:103DA000072B00F240816A4B1B7803F00303032BBF
:103DB00032D16F4B1B781A467B7D42FA03F303F036
:103DC0000103002B10D06B4B1B78DA437B7D42FA4A
:103DD00003F303F00103002B06D0FB6B1B7819469D
:103DE0004C20FCF71FFC1EE1634B1B781A467B7DC1
:103DF00042FA03F303F00103002B06D0FB6B1B78A0
:103E000019465320FCF70EFC0DE1FB6B1B7819469D
:103E10004E20FCF707FC06E14D4B1B7803F0030333
:103E2000022B17D1544B1B781A467B7D42FA03F3C1
:103E300003F00103002B06D0FB6B1B7819465320BF
:103E4000FCF7F0FBEFE0FB6B1B7819464E20FCF70C
:103E5000E9FBE8E0FB6B1B7819464C20FCF7E2FB22
:103E6000E1E07B6C1B68032B22D13F4B1B78302B8E
:103E700008D1424B1A88FB6B1B781946104600F09C
:103E80009CFED3E0384B1B78312B08D13C4B1A8871
:103E9000FB6B1B781946104600F08FFEC6E0394BCD
:103EA0001A88FB6B1B781946104600F086FEBDE0B1
:103EB0007B6C1B68042B40F082802B4B1B78502BB3
:103EC00008D1314B1A88FB6B1B781946104600F05D
:103ED00074FEAAE0244B1B78552B0DD12A4B1B886E
:103EE0001A462A4B93FBF2F39AB2FB6B1B781946E6
:103EF000104600F062FE98E01B4B1B78462B08D161
:103F0000234B1A88FB6B1B781946104600F055FEB0
:103F10008BE0154B1B784C2B08D11E4B1A88FB6B82
:103F20001B781946104600F048FE7EE00E4B1B78C9
:103F3000432B35D1184B1A68184B1B68B2FBF3F3AF
:103F40009AB2FB6B1B781946104600F036FE6CE007
:103F50002A0000201CF3000824F300082CF30008BA
:103F600034F300083CF300080D050020A40E0020E7
:103F7000270000204C06002066000020504600204C
:103F800010460020124600204000002040420F0052
:103F90003A0000202E0000205406002034000020AB
:103FA000794B1B78542B40D1784B1B88013B9AB23C
:103FB000FB6B1B781946104600F0FFFD35E07B6C6B
:103FC0001B68062B16D1724B1B781B01DCB26E4BA3
:103FD0001B78184600F0ACFD03462344DAB26C4B64
:103FE0001A706B4B1A78FB6B1B7819461046FCF75E
:103FF00019FB1BE07B6C1B68052B40F07D85624B39
:104000001B78184600F094FD03461A46604B1A7060
:104010007B6C06221A6000F06FBD00F06DBD00BF22
:1040200004E000BF02E000BF00E000BF7B6C0022A4
:104030001A60584B1A783B6B1A7000F062BD00BFD3
:10404000514B1B78502B0BD1BB6B00221A803B6B62
:1040500040221A703B6B1A784E4B1A7000F051BD1B
:10406000494B1B78482B0AD17B6B00221A70BB6B23
:1040700000221A803B6B52221A7000F042BDFB6B8B
:104080001B780C2B01D1432300E054237B753E4B5E
:104090001B78797D0293FB8A01930123009300230F
:1040A0000122552000F0D8FDFB2300F034BD364B33
:1040B0001B780A2B07D0344B1B780D2B03D0324BC7
:1040C0001B78002B05D13B6B20221A70142300F0C3
:1040D00022BD2D4B1B785C2B0BD13B6B1A782D4BE3
:1040E0001A703B6B47221A707B6C00221A6000F03A
:1040F00008BD254B1A78FB6B1B7819461046FCF758
:1041000091FA00F0FEBC204B1B78184600F010FD21
:1041100003467B757B7DFF2B00F0B1807B6B1B78AA
:10412000002B00F09D80BB6B1B881A467B7D1146DF
:10413000184600F0E7FE03469AB2BB6B1A807B6B11
:104140001B780133DAB27B6B1A707B6B1B78032B05
:1041500040F2D4840F4B1A783B6B1A70BB6B1B88F0
:10416000B3F5107F03D3BB6B40F23F221A80BB6BC9
:104170001B881A4652001344DB009AB2BB6B1A80AC
:1041800000237B7528E000BF0D0500203C000020C7
:10419000BC0B0020BD0B00207B6C1B685A007B6CA5
:1041A0001A60BB6B1B881A46FB6813441A78A54B30
:1041B0001B781340DBB2002B05D07B6C1B6843F0EF
:1041C00001027B6C1A60BB6B1B8801339AB2BB6B1C
:1041D0001A807B7D01337B757B7D172BDCD97B6C53
:1041E0001B681B0ADAB27B6B1A707B6C1B68DAB235
:1041F0007B6C1B681B0A03F47F431A437B6C1A60B9
:104200007B6B1B781B09DBB2184600F0BAFC034637
:104210001A46FB6B1B7819461046FCF703FA7B6BBA
:104220001B7803F00F03DBB2184600F0AAFC03462C
:104230001A46FB6B1B7819461046FCF7F3F97B6CAA
:104240001B689AB2FB6B1B781946104600F0B5FC50
:104250007B6C00221A607B6B00221A7000F04EBC4F
:104260007B7D072B06D87B7D012202FA03F3DAB2AD
:10427000744B1A707B6B01221A7000F03FBC724BBA
:104280001B780A2B08D0704B1B780D2B04D06E4B7B
:104290001B78002B40F032843B6B20221A701423D1
:1042A00000F039BC684B1B78184600F041FC03460F
:1042B0007B757B7DFF2B20D13B7D002B05D03B6B9D
:1042C0003A7D1A70142300F026BCFB6B1B780C2B74
:1042D00001D1432300E054237B755B4B1B78797D30
:1042E0000293FB8A019301230093022301225520AC
:1042F00000F0B2FCFB2300F00EBC7B6B1B781A466F
:104300007B7D1146184600F0FDFD0346DAB27B6B5B
:104310001A70BB6B1B8803F00103002B07D07B6B6B
:104320001A78FB6B1B7819461046FCF77BF9BB6BC0
:104330001B8801339AB2BB6B1A80E2E3424B1B78B5
:10434000184600F0F5FB03467B757B7DFF2B32D1D1
:104350007B6C1B68DBB203F07F03DAB23B4B1A7055
:10436000394B1B78512B07D1394B1B7843F0030392
:10437000DAB2374B1A70C4E3354B1B7803F00203F3
:10438000002B3FF45CAE7B6C00221A603B6B3C223E
:104390001A702F4B1B7803F00103DBB23333DAB210
:1043A0007B6B1A702A4B1B7823F00303DAB2284B7D
:1043B0001A70FFF7E3BA264B1B7803F00103002BBA
:1043C00012D0BB6B1B881A467B7D1146184600F045
:1043D00099FD03469AB2BB6B1A801E4B1B780133C2
:1043E000DAB21C4B1A708CE37B6C1A687B7D114629
:1043F000184600F087FD02467B6C1A6081E3124B81
:104400001B78184600F094FB03467B757B7DFF2BE1
:1044100022D13B7D002B04D03B6B3A7D1A701923CF
:1044200079E37B6B1978084B1B780293FB8A019325
:104430000123009301230022472000F00DFCFB2301
:1044400069E300BFBC0B00200D0500201A470020C7
:104450000C050020250900207B6C1A687B7D114625
:10446000184600F063FD02467B6C1A6049E39E4BE0
:104470001B78184600F05CFB03467B757B7DFF2BA9
:1044800036D13B7D002B04D03B6B3A7D1A701B2349
:1044900041E3954B1B782D2B07D1944B1B7843F0B0
:1044A0000C03DAB2914B1A702BE38F4B1B782B2B3A
:1044B0000ED18E4B1B7843F00803DAB28B4B1A7087
:1044C0008A4B1B7823F00403DAB2884B1A7018E386
:1044D0007B6B1978844B1B780293FB8A0193012331
:1044E000009301230022472000F0B6FBFB2312E3D8
:1044F0007B6C1A687B7D1146184600F017FD02465A
:104500007B6C1A60FDE2784B1B78184600F010FBBC
:1045100003467B757B7DFF2B34D13B7D002B09D07F
:104520003B6B3A7D1A70714B1B7803F02003002B14
:1045300026D00EE06C4B1B780293FB8A019301237B
:1045400000930323002247214D2000F085FBFB232D
:10455000E1E2674B1B781A467B6C1B6899B2654B8E
:1045600023F81210624B1B781A46634B06219954AC
:104570005F4B1B781A46614B012199540123CAE213
:104580000823C8E27B6C1A687B7D1146184600F050
:10459000CDFC02467B6C1A60B3E23B7D002B07D05A
:1045A0003B6B3A7D1A70FB6B00221A700123B2E25A
:1045B0004D4B1B78302B06D14B4B31221A70504992
:1045C000504809F048FA484B1B78312B3ED14E49F0
:1045D0004C4809F09AFA0346FB744B4B5B7A002B6C
:1045E0000AD1FB6B1B781946484805F04DFB44493E
:1045F000444809F030FA3FE0FB7C002B06D0FB7CFE
:104600001A460121022005F095FA35E03E4B1B7A4F
:1046100003F02003002B06D0FB6B1B7819463C48A7
:1046200005F032FB0BE0384B1B7A03F01003002B34
:1046300005D0FB6B1B781946364805F025FBFB6B54
:104640001B781946344805F01FFB15E0264B1B78F4
:104650004E2B11D03B6B2E221A70234B1B780293EA
:10466000FB8A0193012300930323002201214620AA
:1046700000F0F2FAFB234EE2FB6B1B78184605F0C4
:10468000EFFA3EE23B7D002B05D03B6B3A7D1A7082
:104690007B6B1B783FE2FB6B1B780C2B3ED97B6B53
:1046A0001B78212B0DD1104B1B780293FB8A0193B1
:1046B000032300930323002223214D2000F0CCFA92
:1046C0000FE07B6B1B78203BD9B2074B1B78029322
:1046D000FB8A01930323009303230022462000F06A
:1046E000BBFAFA2317E200BF0D0500200C050020DD
:1046F00008050020000F0020BC0E0020140C002034
:10470000F845002030460020C045002044F3000852
:104710004CF3000850F30008C9450020FB6B1B78E0
:104720001A46A04B1978A04B9954FB6B1B780133A8
:10473000DAB2FB6B1A70E4E19A4B1B78184600F072
:10474000F7F903467B757B7DFF2B35D1954B1B78A5
:10475000502B03D1FB6B00221A7028E0914B1B7881
:104760004E2B0AD1914B1B7843F00103DAB28F4BE9
:104770001A70FB6B01221A7019E08A4B1B78482BC8
:1047800003D1FB6B01221A7011E07B6B1B78533B4A
:10479000D9B2844B1B780293FB8A019301230093C7
:1047A00000230122462000F057FAFB23B3E17B6B84
:1047B0001A783B6B1A70A4E17B6C1A687B7D1146FA
:1047C000184600F09FFB02467B6C1A6099E1754B1E
:1047D0001B78184600F0ACF903467B757B7DFF2BF8
:1047E00016D13B7D002B04D03B6B3A7D1A702923F8
:1047F00091E16C4B1B780293FB8A01930123009398
:10480000012301220821462000F026FAFB2382E141
:10481000BB6B1B881A467B7D1146184600F086FB51
:1048200003469AB2BB6B1A80BB6B1B88B3F5007F43
:1048300040F266815B4B1B780293FB8A0193022353
:104840000093012300220821462000F005FAF923F5
:1048500061E1FB6B1B78002B5CD0544B1B7803F0A1
:104860000103002B56D14F4B1B78184600F060F91E
:1048700003467B757B7DFF2B1AD13B6B2E221A7072
:104880003B7D002B02D03B6B3A7D1A70BB6B1B88C3
:104890005B089AB2BB6B1A80BB6B1B881A464449F3
:1048A000002001F0A7FF0246424B1A602A2332E1A2
:1048B0007B6B1B781A467B7D1146184600F022FB65
:1048C0000346DAB27B6B1A70BB6B1B885B089BB22A
:1048D0001A467B6B1978364B9954BB6B1B88013396
:1048E0009AB2BB6B1A80BB6B1B885B089BB2B3F59B
:1048F000007FC0F0DA802B4B1B780293FB8A019378
:1049000003230093022301220921462000F0A4F989
:10491000FA2300E1FB6B1B78002B40F0B780234BA0
:104920001B7803F00103002B40F0B0803B7D002B8F
:1049300004D03B6B3A7D1A702A23ECE01E4B1B78A7
:10494000032B17D17B6B1B781B01DCB2154B1B783B
:10495000184600F0EDF803462344DAB27B6B1A7078
:10496000154B00221A70BB6B1B88013B9AB2BB6BC4
:104970001A8066E0104B1B78022B1FD1094B1B7865
:10498000184600F0D5F803461A467B6B1A700A4B9E
:1049900003221A70BB6B1B88013B9AB2BB6B1A8057
:1049A0004FE000BF0D050020E84500200C05002069
:1049B000600C002088450020BD0B0020584B1B7860
:1049C000012B32D1564B00221A70FB8ABA6813446D
:1049D0001A78544B1A70534B1A787B6B1A70514BE0
:1049E0001B786E2B03D17B6B0A221A7016E04D4B9D
:1049F0001B78722B03D17B6B0D221A700EE0494B92
:104A00001B78302B03D17B6B00221A7006E0454BDC
:104A10001B78682B02D1424B02221A70BB6B1B8899
:104A2000013B9AB2BB6B1A800BE03E4B1B785C2BB0
:104A300003D13B4B01221A7003E03A4B1A787B6B8F
:104A40001A703849384801F0F7FEBB6B1B881A46CC
:104A50007B6B1978354B9954BB6B1B8801339AB229
:104A6000BB6B1A80BB6B1B88B3F5007F1ED32D4B2D
:104A70001B780293FB8A01930323009303230122F3
:104A80000921462000F0E8F8FA2344E0254B1B7882
:104A90000293FB8A01930123009300230122092141
:104AA000462000F0D9F8FB2335E000BF29E03B7D2C
:104AB000002B05D03B6B3A7D1A707B6B1B782AE08C
:104AC000184B1B78184600F033F803461A467B6CE7
:104AD0001A6016E0FE231EE000BF12E000BF10E0E7
:104AE00000BF0EE000BF0CE000BF0AE000BF08E01E
:104AF00000BF06E000BF04E000BF02E000BF00E02E
:104B000000BFFB8A0133FB823B681B88FA8A9A420A
:104B10007BF6B1AF022318461C37BD46F0BD00BF7F
:104B2000BD0B00200D05002088450020600C0020F2
:104B300080B483B000AF0346FB71FB792F2B06D9FD
:104B4000FB79392B03D8FB79303BDBB214E0FB79DE
:104B5000402B06D9FB79462B03D8FB79373BDBB2D8
:104B60000AE0FB79602B06D9FB79662B03D8FB7929
:104B7000573BDBB200E0FF2318460C37BD4680BC34
:104B8000704780B483B000AF0346FB71FB79092BFB
:104B900003D8FB793033DBB20AE0FB79092B06D965
:104BA000FB790F2B03D8FB793733DBB200E0FF230F
:104BB00018460C37BD4680BC704780B582B000AF48
:104BC00003460A46FB8013467B71FB881B0B9BB296
:104BD000DBB203F00F03DBB21846FFF7D2FF034648
:104BE0001A467B7919461046FBF71CFDFB881B0A09
:104BF0009BB2DBB203F00F03DBB21846FFF7C1FF35
:104C000003461A467B7919461046FBF70BFDFB88D5
:104C10001B099BB2DBB203F00F03DBB21846FFF7B0
:104C2000B0FF03461A467B7919461046FBF7FAFC9B
:104C3000FB88DBB203F00F03DBB21846FFF7A1FFDE
:104C400003461A467B7919461046FBF7EBFC00BF7A
:104C50000837BD4680BD000090B583B000AF044664
:104C6000084611461A462346FB710346BB710B46A4
:104C70007B7113463B718D4B1B78DBB2002B00F030
:104C80001081FB79002B04D10F21894804F0FCFF2F
:104C90003DE0FB790F211846FBF7C4FCBB79FF2BE5
:104CA00008D10F212E20FBF7BDFC0F212E20FBF792
:104CB000B9FC2CE0FB79552B09D10F217820FBF7AB
:104CC000B1FCBB790F211846FBF7ACFC1FE0FB7968
:104CD000532B05D1BB790F211846FBF7A3FC16E037
:104CE000BB791B09DBB21846FFF74BFF03460F21C8
:104CF0001846FBF797FCBB7903F00F03DBB21846AD
:104D0000FFF73FFF03460F211846FBF78BFC0F21EF
:104D10002020FBF787FC7B79012B04D10F2165480C
:104D200004F0B2FF06E07B79022B03D10F21624829
:104D300004F0AAFF3B79012B0AD1604B1B7803F0EA
:104D40000303012B04D10F214E20FBF76BFC0EE077
:104D50003B79022B04D10F214820FBF763FC06E0CE
:104D60003B79002B03D00F215020FBF75BFC3B7EEF
:104D7000012B04D10F21524804F086FF1EE03B7E38
:104D8000022B04D10F214F4804F07EFF16E03B7E3A
:104D9000032B04D10F214C4804F076FF0EE03B7E3C
:104DA000042B04D10F21494804F06EFF06E03B7E3E
:104DB000052B03D10F21464804F066FF97F82030F9
:104DC000002B68D00F21434804F05EFF97F8203095
:104DD0001B09DBB21846FFF7D4FE03460F21184625
:104DE000FBF720FC97F8203003F00F03DBB21846E6
:104DF000FFF7C7FE03460F211846FBF713FC0F21F0
:104E0000354804F041FF97F820300F211846FBF792
:104E100009FCBB8B0133BB83304B1B78012B17D1B3
:104E20000F212F4804F030FF2E4B1B880F2118460E
:104E3000FFF7C3FE0F212C4804F026FF2B4B1B88E5
:104E40000F211846FFF7B9FE294B1B88BB8319E0D9
:104E5000224B1B78022B04D10F21264804F014FFAB
:104E600010E01E4B1B78032B04D10F21224804F0C5
:104E70000BFF07E0194B1B78042B03D10F211F48B0
:104E800004F002FF0F211E4804F0FEFEBB8B0F2131
:104E90001846FFF792FE0F210D20FBF7C3FB06F02B
:104EA000C7F900BF0C37BD4690BD00BF8C0E002077
:104EB00054F3000864F3000868F300080C050020B0
:104EC00070F3000884F3000898F30008ACF30008BE
:104ED000BCF30008C8F30008D0F300088D0E0020D2
:104EE000D4F3000850460020E0F300080809002031
:104EF0000C090020F0F30008FCF3000808F4000897
:104F000010F4000880B483B000AF03463960FB7131
:104F10003B681B013B60FB793A6813443B603B688C
:104F200018460C37BD4680BC7047000080B483B083
:104F300000AF03463960FB710C4B1B7803F0010393
:104F4000002B06D03A6813469B0013445B003B607D
:104F500002E03B681B013B60FB793A6813443B600D
:104F60003B6818460C37BD4680BC70470C050020D6
:104F700080B485B000AF78600B46FB70FB78DB0037
:104F8000FB70FB787A6822FA03F3FB73FB7B18460D
:104F90001437BD4680BC704780B500AF154A154B2D
:104FA0001B6843F0010313601249124B5A68124BFD
:104FB00013404B600F4A0F4B1B6823F0847323F49C
:104FC000803313600B4A0B4B1B6823F48023136060
:104FD000084A084B5B6823F4FE035360054B4FF40B
:104FE0001F029A6000F00CF8044B4FF000629A60C8
:104FF00000BF80BD001002400000FFF800ED00E09F
:1050000080B483B000AF00237B6000233B60354A4F
:10501000344B1B6843F4803313607B6801337B603F
:10502000304B1B6803F40033002B03D17B68B3F5CE
:10503000A06FF2D32B4B1B6803F40033002B4BD033
:10504000294A294B1B6843F010031360264A264B5C
:105050001B6823F003031360234A234B1B6843F0B0
:10506000020313601F4A1F4B5B6853601D4A1D4BB0
:105070005B6853601B4A1B4B5B6843F4806353605F
:10508000184A184B5B6823F47C135360154A154B80
:105090005B6843F4E8135360124A124B1B6843F0F9
:1050A0008073136000BF0F4B1B6803F00073002B6D
:1050B000F9D00C4A0B4B5B6823F003035360094A99
:1050C000084B5B6843F00203536000BF054B5B680D
:1050D00003F00C03082BF9D100BF0C37BD4680BC90
:1050E000704700BF00100240002002401EF0040F75
:1050F0000CBFEFF30880EFF3098000F001B800BFA8
:1051000080B493B000AF78607B681B687B647B6879
:105110005B683B647B689B68FB637B68DB68BB63A5
:105120007B681B697B637B685B693B637B689B690E
:10513000FB627B68DB69BB620E4B1B687B620E4BBC
:105140001B683B620D4B1B68FB610D4B1B68BB6111
:105150000C4B1B687B610C4B1B683B610B4B5B6A08
:10516000FB600B4B1B6803F00103002B00D001BE5A
:10517000FEE700BF38ED00E028ED00E02CED00E098
:1051800030ED00E03CED00E034ED00E000ED00E04B
:10519000F0ED00E080B400AF084A084B9B6943F093
:1051A00008039361064B4FF011325A60044B4FF4E1
:1051B0007F425A6100BFBD4680BC7047001002406C
:1051C000000C014080B485B000AF0346FB800B4665
:1051D000BB8013467B805B4AFB8813805A4A5A4B3C
:1051E000DB6943F00403D361584B1B68584AA2FBA8
:1051F00003235B0D9BB2013BFB81564AFB889385E1
:10520000544AFB891385534A524B1B889BB223F4A3
:105210005C739BB213804F4B4E4A128892B21A8035
:105220004C4B01229A824B4A4A4B1B889BB223F07B
:1052300080039BB21380474A464B1B8C9BB223F0E2
:1052400001039BB21384434A424B1B8B9BB223F056
:1052500070039BB213833F4A3E4B1B8B9BB223F0E0
:1052600003039BB213833B4B3A4A128B92B21A83CD
:10527000384A384B1B8C9BB223F002039BB2138439
:10528000344B344A128C92B21A84324ABB889386C9
:10529000304A304B1B8B9BB223F008039BB2138325
:1052A0002C4B2C4A128B92B21A832A4A294B1B8C04
:1052B0009BB223F010039BB21384264A254B1B8B11
:1052C0009BB223F4E0439BB21383224A214B1B8BF6
:1052D0009BB223F440739BB213831E4A1D4B1B8B5E
:1052E0009BB243F4C0439BB213831A4A194B1B8CE5
:1052F0009BB223F020039BB21384164A154B1B8CE0
:105300009BB243F010039BB21384124A7B8813872D
:10531000104A104B1B8B9BB223F400639BB2138388
:105320000C4B0C4A128B92B21A830B4B202283F83F
:105330001E23094B4FF080421A6000BF1437BD4650
:1053400080BC7047280000200010024010000020A0
:10535000819F5E160008004000E100E080B483B049
:1053600000AF78605A4A5A4B5B6943F001035361BE
:105370005849584B1A684FF6FE7313400B60554B53
:1053800000221A60534B00225A60524B00229A604E
:10539000504B0022DA60504A4F4B5B6843F0706319
:1053A00053604C4A4B4B1B6823F4FF4323F07003BC
:1053B0001360484A474B1B6843F4005343F0100303
:1053C0001360444B00225A60424B444A9A60414B5E
:1053D000434ADA604349434B1A684FF6FE73134061
:1053E0000B60404B00221A603E4B00225A603D4B3E
:1053F00000229A603B4B0022DA60374A364B5B68EA
:1054000043F00F0353607B68374A1360354A354BCE
:105410001B6823F4FF4323F070031360314A314BC0
:105420001B6843F4025343F0100313602D4B00221A
:105430005A602C4B294A9A602A4A7B68D3602B49D0
:105440002A4B1A684FF6FE7313400B60274B00225D
:105450001A60264B00225A60244B00229A60234B8C
:105460000022DA601C4A1C4B5B6843F470435360B3
:105470001E4A1E4B1B6823F4FF4323F07003136086
:105480001A4A1A4B1B6843F4005343F0100313608D
:10549000164B00225A60154B104A9A60134B144A5F
:1054A000DA60144B144ADA60144B002283F80E239E
:1054B000124B4FF480421A600C4A0C4B1B6843F0AD
:1054C0000203136000BF0C37BD4680BC704700BFAD
:1054D0000010024080000240000002400D0C01401C
:1054E0002700002008000240CC0B002044000240AE
:1054F0004C06002000ED00E00007FA0500E100E0A6
:1055000080B483B000AF7860244B254A5A60254AA6
:105510007B685360244A7B685360244A7B685360ED
:10552000234B00221A821F4A1E4B1B6843F00103C3
:1055300013601D4A1C4B1B6843F0010313601B4A98
:105540001A4B1B6843F001031360194A184B9B89DF
:105550009BB243F400739BB29381154A144B9B8911
:105560009BB243F480639BB29381114A104B9B8999
:105570009BB243F480739BB293810D4B0D4A12880A
:105580009A840B4A0A4B1B889BB243F001039BB2DF
:10559000138000BF0C37BD4680BC7047000002403E
:1055A0000FD0000F8000024008000240440002407B
:1055B000000800402800002080B483B000AF78606D
:1055C0007B68B3F5585F05D20549064B1A687B68BE
:1055D0001344CB6000BF0C37BD4680BC704700BF92
:1055E00008000240CC0B002080B500AF05F0F0FBB6
:1055F0001E4B4FF47F425A611D4B4FF400525A60CC
:10560000012201211B48FBF7FFF91B491A4B1A68BD
:105610004FF6FE7313400B601849184B1A684FF68B
:10562000FE7313400B601649154B1A684FF6FE7354
:1056300013400B600F4A0F4B9B899BB223F40073FE
:105640009BB293810B4A0B4B9B899BB223F48063E3
:105650009BB29381074A074B9B899BB223F48073CB
:105660009BB2938105F0C2FB00BF80BD000C0140DE
:105670000000024000080040800002400800024094
:105680004400024080B500AF05F0A2FB154B4FF679
:10569000FE721A82144B1B78122B06D8124B1B7801
:1056A0000133DAB2104B1A7017E00F4B00221A7058
:1056B0000C4A0C4B1B889BB223F001039BB2138056
:1056C000002201210748FBF79FF9084B1B7803F0E4
:1056D0007F03042B01D105F01FFA05F087FB00BF03
:1056E00080BD00BF000800404D0600202A000020B9
:1056F00080B487B000AFF8607B600B46FB72134646
:105700003B817B68FB747B681B0ABB747B681B0C4A
:105710007B74FB7C664A127802FB03F35B11FB741B
:10572000BB7C634A127802FB03F35B11BB747B7C86
:105730005F4A127802FB03F35B117B743B891A46C4
:1057400052001344DB00BB8297F90B30DB435AB2A3
:10575000584B1B785BB213405BB23B74554B1A78C5
:10576000FB7A1340FB720023FB758BE0BB8AFA685F
:105770001344BA8AF9680A4411783A7C0A40D2B2D2
:105780001A70BB8A0833FA681344BA8A0832F96877
:105790000A4411783A7C0A40D2B21A70BB8A10339C
:1057A000FA681344BA8A1032F9680A4411783A7CCC
:1057B0000A40D2B21A70BB8AFA681344BA8AF968EE
:1057C0000A44127851B2B87CFA7D00FA02F2D21182
:1057D000D2B202F00102D2B2F87A00FB02F2D2B2E7
:1057E00050B2354A127852B2024352B20A4352B210
:1057F000D2B21A70BB8A0833FA681344BA8A0832E4
:10580000F9680A44127851B2787CFA7D00FA02F203
:10581000D211D2B202F00102D2B2F87A00FB02F247
:10582000D2B250B2244A127852B2024352B20A4360
:1058300052B2D2B21A70BB8A1033FA681344BA8AD1
:105840001032F9680A44127851B2F87CFA7D00FAF5
:1058500002F2D211D2B202F00102D2B2F87A00FB07
:1058600002F2D2B250B2144A127852B2024352B289
:105870000A4352B2D2B21A70BB8A0133BB82FB7D9B
:105880000133FB75FB7D072B7FF670AF97F8203057
:10589000002B08D097F82030013B87F82030BB8AD6
:1058A0001033BB825FE700BF1C37BD4680BC70472A
:1058B00026000020270000204C06002080B487B07E
:1058C00000AF7860084611461A460346FB700B4647
:1058D000BB7013463B800023BB750023BB820023B3
:1058E0007B8200233B820023FB730023BB730023D6
:1058F0007B730123FB750DE0FA78FB7D42FA03F31D
:1059000003F00103002B02D0FB7DBB7505E0FB7D9E
:105910000133FB75FB7D072BEED9BB7D012202FA1B
:1059200003F3FB70BB7DC3F10F033B733B881A4647
:1059300052001344DB003B803B8C1A465200134458
:10594000DB003B840023FB757EE03B887A681344D0
:105950001B781A46BB7D42FA03F303F00102FB7D7C
:1059600002FA03F31AB2B7F9123013431BB27B8267
:105970003B8808337A6813441B781A46BB7D42FA89
:1059800003F303F00102FB7D02FA03F31AB2B7F945
:10599000103013431BB23B823B8810337A681344A8
:1059A0001B781A46BB7D42FA03F303F00102FB7D2C
:1059B00002FA03F31AB2B7F9143013431BB2BB82D5
:1059C0003B8C7A6813441B781A46BB7842FA03F37F
:1059D00003F00102FB7D02FA03F35AB297F90E308D
:1059E00013435BB2BB733B8C08337A6813441B7858
:1059F0001A46BB7842FA03F303F00102FB7D02FA78
:105A000003F35AB297F90D3013435BB27B733B8CAF
:105A100010337A6813441B781A46BB7842FA03F3B2
:105A200003F00102FB7D02FA03F35AB297F90F303B
:105A300013435BB2FB733B8801333B803B8C0133E8
:105A40003B84FB7D0133FB75FB7D072B7FF67DAF30
:105A50003B8C083B3B84BB7B01339BB27A8A02FBC5
:105A600003F37B827B7B01339BB23A8A02FB03F315
:105A70003B82FB7B01339BB2BA8A02FB03F3BB82FE
:105A800097F90330DB435AB2674B1B785BB2134084
:105A90005BB2FB700023FB758EE03B88083B7A68A5
:105AA00013443A88083A79680A441178FA780A4027
:105AB000D2B21A703B887A6813443A8879680A44EB
:105AC0001178FA780A40D2B21A703B8808337A68A3
:105AD00013443A88083279680A441178FA780A40FF
