:020000040800F2
:10000000F84B00201963000879630008F1530008D9
:100010007963000879630008796300080000000034
:1000200000000000000000000000000079630008EC
:10003000796300080000000081BC000869B0000876
:100040007963000879630008796300087963000820
:100050007963000879630008796300087963000810
:100060007963000879630008796300087963000800
:100070007963000879630008ED5800087963000887
:1000800079630008796300087963000879630008E0
:1000900049BC0008796300087963000879630008A7
:1000A00079630008796300087963000879630008C0
:1000B000ADA700087963000889590008B5A50008B4
:1000C00011A60008796300087963000879630008C5
:1000D00079630008ED080008D1070008796300087B
:1000E0007963000879630008796300080000000064
:1000F0000000000000000000000000000000000000
:1001000000000000000000005FF808F1B0B584B006
:1001100000AFF860B9607A603B60BB681B7803F0A1
:100120002003002B00F03C81FB681B780D2B0BD0CB
:10013000FB681B783B2B07D0FB681B780A2B03D08E
:10014000FB681B78002B3CD1BB681B7803F0400395
:10015000002B36D17B6800221A60BB681B7823F025
:100160004E03DAB2BB681A70BB681B7843F0010318
:10017000DAB2BB681A70BB681B78302B40F2108172
:100180003B6A1B881A46BB8C013B13401A463B68EE
:1001900013440D221A703B6A1B8801339AB23B6AE2
:1001A0001A803B6A1B881AB2BB8C013B9BB21BB204
:1001B00013401BB29AB2BB6A1A80BB68A1221A70A4
:1001C000EEE03B6BD3E900450AF0DEFE02460B464B
:1001D0009D4208BF944206D2BB681B78212B02D0F7
:1001E000BB6821221A70BB681B7803F01003002B38
:1001F00054D0BB681B7803F04003002B0CD0FB6885
:100200001B78292B40F0CC80BB681B7823F040037F
:10021000DAB2BB681A70C3E0FB681B78282B07D1E1
:10022000BB681B7843F04003DAB2BB681A70B7E0D2
:100230003B6A1B881A46BB8C013B13401A463B683D
:100240001344FA6812781A703B6A1B881AB2BB8C86
:10025000013B9BB21BB213401BB29AB2BB6A1A801D
:100260003B6A1B8801339AB23B6A1A803B6A1A8840
:10027000FB6A1B889A4240F09380BB681B7863F04E
:100280007F03DAB2BB681A703B6A1A88BB8C5B08C2
:100290009BB213449AB2FB6A1A8081E0BB681B7858
:1002A00003F00103002B4AD00AF06EFE0A46014615
:1002B0007B6B1B684FF000045B1844EB02043A6B45
:1002C000C2E90034FB681B782A2B0ED17B681B68BF
:1002D0001B02FA6812781A447B681A60BB681B78A4
:1002E0000233DAB2BB681A7029E0FB681A782E4B29
:1002F0001968BB681B785B08DBB2DB43DB0003F0EB
:10030000180321FA03F3DBB29A420ED17B681B6813
:100310001B02FA6812781A447B681A60BB681B7863
:100320000233DAB2BB681A7009E07B6800221A60F7
:10033000BB681B7823F05F03DAB2BB681A70BB6836
:100340001B7803F07F03292B2AD1BB681B7823F08D
:100350007F03DAB2BB681A70BB681B7843F03003C6
:10036000DAB2BB681A703B6A1A88BB6B1A803B6AA8
:100370001A88BB8C5B089BB213449AB2FB6A1A8042
:100380003B6A1B881AB2BB8C013B9BB21BB2134069
:100390001BB29AB2FB6B1A807B6800221A60FFE7DF
:1003A00000BF1037BD46B0BDBC0E002080B485B084
:1003B00000AF786039603B681B682D4AA2FB0323BD
:1003C0005B099BB21B01FB813B681B68FA89120920
:1003D00092B21146642202FB01F29B1ABB60BB6819
:1003E0001B013233224AA2FB03235B099BB203F0B9
:1003F0000F039AB2FB891343FB817B681B8A9BB274
:1004000023F440539AB27B681A827B689B899BB223
:1004100023F4B05323F00C039AB27B689A817B6873
:100420009B899BB243F00C039AB27B689A817B68EC
:100430009B8A9BB223F440739AB27B689A827B6852
:10044000FA891A817B689B899BB223F080039AB258
:100450007B689A817B689B899BB243F020039AB2A8
:100460007B689A8100BF1437BD4680BC704700BFCF
:100470001F85EB5180B584B000AF78600021274B19
:100480000A465A70264B0A465A700021254B0A46E6
:100490001A80254B0A461A800021244B0A461A80EE
:1004A000234B0A461A80234B00221A60224A224B11
:1004B0009B6943F004039361204A204B1B6823F49B
:1004C0007F4313601D4A1D4B1B6843F49643136022
:1004D000194A194BDB6943F40033D3617B689B00F5
:1004E000174AB2FBF3F3FB6007F10C0319461548FA
:1004F000FFF75CFF144B402283F82623124B402267
:100500005A60104A0F4B9B899BB243F400539BB235
:10051000938100BF1037BD4680BD00BFEC040020B2
:10052000E8040020F0040020EE040020860A0020E9
:10053000B80B0020FC04002000100240000801401D
:1005400000E9A4350044004000E100E080B584B03B
:1005500000AF78600021274B0A461A70264B0A46E6
:100560001A700021254B0A461A80254B0A461A802C
:100570000021244B0A461A80234B0A461A80234B3B
:1005800000221A60224A224B9B6943F004039361C4
:10059000204A204B5B6823F47F6353601D4A1D4B48
:1005A0005B6843F496635360194A194B9B6943F4A3
:1005B000804393617B689B00174AB2FBF3F3FB60B7
:1005C00007F10C0319461548FFF7F0FE144B4022C3
:1005D00083F82523124B20225A60104A0F4B9B8927
:1005E0009BB243F400539BB2938100BF1037BD46CA
:1005F00080BD00BFEC040020E8040020F6040020C9
:10060000F4040020800900208A0A00200005002050
:10061000001002400008014000D2496B0038014040
:1006200000E100E080B582B000AF03460A46FB71EE
:100630001346BB71BB79022B6CD8BB7903F0010365
:10064000DAB2554B1A70BB79002B14BF012300237B
:10065000DBB21A46514B1A7055E04F4B1B781A46C5
:100660004F4B9B5CDAB24F4B1A704B4B1B781A46C0
:100670004D4B53F822204B4B1B78591CC8B24949AB
:1006800008701344FA791A70464B1B7803F01F0365
:10069000DAB2444B1A70454B4CF250321A6004E007
:1006A000424B1B68013B414A13603B4B1B781A4687
:1006B0003F4B9B5CDAB23B4B1B789A4203D13B4BDE
:1006C0001B68002BECD1344B1B781A46354B19783C
:1006D000334B995472B6304B1B781A46354B53F84E
:1006E00022302D4A12781146324A52F821201288BF
:1006F00042F0800292B21A8062B6274B1B78013317
:10070000DAB2254B1A70244B1A78244B1B789A4284
:10071000A3D93CE0BB790C2B29D1274B1B78802B2C
:100720001ED8224B4CF250321A6004E01F4B1B685B
:10073000013B1E4A1360214B1B687E2B03DC1B4BC5
:100740001B68002BF2D11C4B1B7819461C4AFB7905
:100750005354194B1B780133DAB2174B1A7016E059
:100760000F21184809F074FB0AF048FE0FE0164B01
:100770001B885A1C91B2144A11801946134AFB79FE
:100780005354114B1B883F2B01D90AF037FE00BF91
:100790000837BD4680BD00BF840A0020880A0020BB
:1007A000E80400209C0A002000000020980A002095
:1007B000EC04002008000020250900202409002066
:1007C000D4460020B8F400086009002064470020E7
:1007D00080B58AB008AF354B1B889BB27B607B68C5
:1007E00003F02003002B30D0304B9B889BB2DBB250
:1007F000BB700AF0D5FB2E4B1B7803F02003002BB7
:1008000009D0BB7803F03F03DBB2BB70BB7818465E
:1008100005F000FE16E0B81C264B0793264B069306
:10082000264B0593264B0493264B0393264B0293AA
:100830004FF480730193254B0093254B254A26499D
:10084000FFF764FC0AF0BAFB2CE07B6803F080033E
:10085000002B27D0214B5B78FB70214B5B78DBB200
:10086000FA789A420FD1114A104B9B899BB223F020
:1008700080039BB293811B4B1B8823F008039AB221
:10088000184B1A800EE0094AFB78591CF97019467A
:10089000154B5B5C9BB29380FB7803F01F03DAB2CD
:1008A0000E4B5A7000BF0837BD4680BD0044004063
:1008B000A4060020B80B0020EE040020B00B00209E
:1008C000A80B0020F2040020860A0020F00400207B
:1008D00084090020FC040020A10B0020EC0400206F
:1008E000E8040020BE0F0020A804002080B58AB0D4
:1008F00008AF354B1B889BB27B607B6803F02003FD
:10090000002B30D0304B9B889BB2DBB2BB700AF01F
:1009100047FB2E4B1B7803F01003002B09D0BB784C
:1009200003F03F03DBB2BB70BB78184605F072FDE5
:1009300016E0B81C264B0793264B0693264B0593CF
:10094000264B0493264B0393264B02934FF480735C
:100950000193254B0093254B254A2649FFF7D6FBEB
:100960000AF02CFB2CE07B6803F08003002B27D0DF
:10097000214B1B78FB70214B1B78DBB2FA789A4233
:100980000FD1114A104B9B899BB223F080039BB27D
:1009900093811B4B1B8823F008039AB2184B1A80D3
:1009A0000EE0094AFB78591CF9701946154B5B5C3F
:1009B0009BB29380FB7803F01F03DAB20E4B1A70E0
:1009C00000BF0837BD4680BD00380140A4060020A6
:1009D0008A0A0020F4040020B40B0020900A0020B2
:1009E000F804002080090020F6040020A00A00205E
:1009F00000050020A00B0020EC040020E8040020EB
:100A0000BE0F0020C804002080B483B000AF78601F
:100A10000B467B8013467B707B78002B08D07B686D
:100A20009B899AB27B8813439AB27B689A8109E0CA
:100A30007B689B899AB27B88DB439BB213409AB256
:100A40007B689A8100BF0C37BD4680BC70470000B0
:100A5000F0B58BB004AFF860B9607A603B600023FA
:100A6000FB8200237B75B54B00221A707B681B88C4
:100A7000FB8204F0D3B9FB8ABA6813441A78AF4BEF
:100A80001A70FB8A01339AB27B681A80AC4B1B78D0
:100A9000012B0FD1AB4B1B8801339AB2A94B1A80A3
:100AA000A64B1B780D2B05D1A74B1B8801339AB29F
:100AB000A54B1A803B6B1B78382B1AD03B6B1B78ED
:100AC000402B16D03B6B1B785C2B12D09B4B1B78BA
:100AD000202B04F07F81994B1B78602B09D9974B11
:100AE0001B787A2B05D8954B1B78203BDAB2934BB9
:100AF0001A7000233B75914B1B780D2B07D08F4B41
:100B00001B780A2B03D08D4B1B78002B05D120239B
:100B10003B758C4B00221A8009E0884B1B783B2BDD
:100B200003D0864B1B78282B01D12E233B753B6BC2
:100B30001B78203B422B04F24B8101A252F823F098
:100B40004D0C0008550D00082B180008AD2A0008B0
:100B5000A31B00081D210008992800080D2A000881
:100B6000D14D0008D14D0008D14D0008D14D0008ED
:100B7000D14D0008D14D0008AD2A00088D0E0008A7
:100B8000C92A0008C92A0008C92A0008C92A000879
:100B9000FB2B0008D331000801350008FB160008C4
:100BA000F71700088F3A00080B3C0008AB4D00080F
:100BB0006B3C00089D4800084F430008D14D0008D9
:100BC000BD430008D14D0008712B0008D14D00082D
:100BD000A9490008272D0008653B0008553D00087D
:100BE0003D3800089336000885320008E7390008D0
:100BF0000947000863470008274A0008D14D00084C
:100C000009480008D14D0008A1450008D14D000851
:100C1000D14D0008D14D0008D14D0008D14D00083C
:100C2000D14D0008D14D0008D14D0008BD4A000843
:100C3000694B0008892F0008D14D000815440008B1
:100C4000D14D0008474600086F1400083F4B1B7841
:100C500023F07F03DAB23D4B1A703D4B00221A702D
:100C60007B6B00221A70FB6B00221A70334B1B78CF
:100C7000532B03D13B6B21221A7059E02F4B1B7869
:100C8000462B03D13B6B22221A7051E02B4B1B7871
:100C9000412B06D17B6B80221A703B6B4A221A7063
:100CA00046E0264B1B78472B03D13B6B24221A705E
:100CB0003EE0224B1B784D2B03D13B6B25221A7053
:100CC00036E01E4B1B78552B03D13B6B26221A7046
:100CD0002EE01A4B1B783B2B03D0184B1B78282B8C
:100CE00007D1174B1B78012B22D13B6B2E221A7098
:100CF0001EE0124B1B780D2B1AD0104B1B780A2BC1
:100D000016D00E4B1B78002B12D00C4B1B78029385
:100D1000FB8A01930123009300230022FF2100207E
:100D200004F01CF93B6B2E221A70FC2304F07DB8F2
:100D30007B6C00221A6004F06EB800BF0D05002025
:100D4000950E00200C090020080900200C05002049
:100D50004E4600209F4B1B78184604F06BF8034664
:100D60007B757B7DFF2B6FD17B6C00221A60994BCA
:100D70001B78502B03D0974B1B78482B11D13B6B22
:100D80002F221A70944B1A78944B1A70944B0022AD
:100D90001A70944B00221A70BB6B00221A8004F068
:100DA0003AB88C4B1B78522B04D13B6B37221A700C
:100DB00004F031B8874B1B784B2B1DD13B6B622263
:100DC0001A70BB6B00221A80834B1A78834B1A70FF
:100DD000834B00221A70834B01221A70824B00222F
:100DE0001A60824B00221A70814B00221A70814BCC
:100DF00000221A7004F00FB8764B1B78492B07D1EC
:100E00003B6B24221A707B6C28221A6004F003B812
:100E1000704B1B784D2B07D13B6B3C221A707B6BC0
:100E200035221A7003F0F7BF6A4B1B780293FB8AD6
:100E300001930123009300230022FF21532004F09B
:100E40008DF8FC2303F0F1BF7B7D072B0FD9614B9D
:100E50001B780293FB8A0193022300930023002254
:100E6000FF21532004F07AF8F92303F0DEBF7B6BF7
:100E70001B785AB27B7D012101FA03F35BB2134365
:100E80005BB2DAB27B6B1A7003F0C5BF3B7D002BFF
:100E900005D03B6B3A7D1A70012303F0C6BF4D4B62
:100EA0001B78184603F0C6FF03467B757B7DFF2B3E
:100EB00040F02381FB6B1B78002B40F00D81454BEC
:100EC0001B78472B06D1BB6B1B8801339AB2BB6BD7
:100ED0001A80F7E03F4B1B783E2B0AD1FB6B0522B3
:100EE0001A703E4B1A783C4B1A703D4B04221A7014
:100EF0000DE1384B1B785E2B15D1FB6B05221A7068
:100F0000364B1B7803F04103002B04D07B6C1B682D
:100F10005A1C7B6C1A60314B1A782F4B1A70304B6D
:100F200008221A70F3E02B4B1B78562B1BD1FB6B5E
:100F300005221A70294B1B7803F04103002B0AD0BD
:100F40007B6C1B68C3F30B03012B04D97B6C1B6800
:100F50005A1E7B6C1A60214B1A781F4B1A70204B5B
:100F600002221A70D3E01B4B1B78482B07D1FB6B76
:100F700005221A707B6C6FF07F421A60C7E0154B38
:100F80001B784C2B06D1FB6B05221A707B6C002260
:100F90001A60BCE00F4B1B78532B03D17B6C0322F0
:100FA0001A6030E00B4B1B78502B03D17B6C022274
:100FB0001A6028E0074B1B78542B03D17B6C01226D
:100FC0001A6020E0034B1B78522B15D17B6C082252
:100FD0001A6018E00D0500200C050020BE0B002053
:100FE000C00B0020CC0B0020C4450020C10B00200A
:100FF000BF0B0020BC0B0020974B1B784D2B11D151
:101000007B6C05221A60954B1B7843F04003DAB2E3
:10101000924B1A70924B00221A70FB6B02221A70CC
:1010200003F0F9BE8C4B1B784B2B0BD18B4B1B78F1
:1010300043F00103DAB2894B1A70FB6B04221A7079
:1010400003F0E9BE844B1B784F2B12D1834B1B78E6
:1010500043F00203DAB2814B1A70FB6B03221A7061
:101060007B6C1B687F4A13607B6C00221A6003F064
:10107000D2BE794B1B782A2B17D17B4B1A78774B32
:101080001A70FB6B04221A70754B1B7803F0100367
:10109000002B05D1724B1B7843F00103DBB200E05B
:1010A00001236F4A137003F0B6BE6B4B1B783F2BC6
:1010B0000DD16A4B1B7843F01003DAB2674B1A70FC
:1010C00000E000BFFB6B00221A7003F0A4BE624B6D
:1010D0001B782C2BF5D000E000BF5F4B1B780293F0
:1010E000FB8A0193012300930023002278215320DF
:1010F00003F034FFFB2303F098BE7B6C1A687B7D02
:101100001146184604F080F802467B6C1A60FB6BAF
:101110001B780133DAB2FB6B1A70FB6B1B78052B63
:1011200043F25A86BB6B1B88B3F5107F12D33B6B1F
:1011300020221A70484B1B780293FB8A01930323E9
:101140000093002300227821532003F007FFFA23A5
:1011500003F06BBE414B1B7803F00203002B10D051
:101160007B6C1B689AB2BB6B1A803E4B1A687B6C17
:101170001A603A4B1B7823F00203DAB2374B1A702D
:101180006DE1364B1A78384B1A70354B1B7803F0EB
:101190000103002B7AD07B6C1B68DAB2334B1A70D8
:1011A0007B6C1B681A0A7B6C1A602D4B1B7823F032
:1011B0000103DAB22A4B1A702C4B1B78012B40F238
:1011C0004D81274B1B78012B36D9254B1B7843F0DB
:1011D0001003DAB2224B1A70214B1B7803F0020382
:1011E000002B11D01D4B1B7803F04003002B0BD0BC
:1011F0007B6C1B68C3F30B03012B05D97B6C1B684D
:101200005A1E7B6C1A6017E0154B1B7803F008031D
:10121000002B11D0114B1B7803F04003002B0BD097
:101220007B6C1B68C3F30B03B3F5107F04D27B6C9C
:101230001B685A1C7B6C1A60BB6B1B881A460B4BD5
:101240001B781344013B0A4A1288934212DC074B75
:101250001B78023BDBB217E00D0500200C050020D7
:10126000C00B0020C4450020BE0B0020CC0B00208A
:1012700024000020974B1B88DAB2BB6B1B88DBB2C3
:10128000D31ADBB2013BDBB2934A1370934B1B784A
:1012900003F04003002B5ED07B6C1B68C3F30B0391
:1012A000B3F5107F07D37B6C1A688D4B134003F2A4
:1012B0003F227B6C1A607B6C1B6803F40023002BBD
:1012C0001ED07B6B18787B6C1B681B0BDBB203F0AA
:1012D0000703DCB2BB6B1D887B6C1B689BB2C3F33E
:1012E0000B039BB27C4A12787E49097802910192E5
:1012F00000932B4622460146F86804F061FC22E088
:101300007B6B1C787B6C1B681B0BDBB203F0070349
:10131000DDB2BB6B1E887B6C1B689BB2C3F30B03F7
:101320009BB27A6C1268120CD2B26B4909786D4884
:101330000078039002910192009333462A46214699
:10134000F86804F0F7FD654B1B7823F04003DAB230
:10135000624B1A7066E0614B1B7803F01003002BA0
:101360001CD07B6B1978BB6B1A887B6C18685A4B46
:101370001B7800930346F86804F0F8FE03469AB21F
:10138000594B1B8813449AB2574B1A80534B1B7806
:1013900023F01003DAB2514B1A7043E04F4B1B7825
:1013A00003F00103002B30D07B6C1B68DAB21346CC
:1013B0005B001344C3F558527B6C1A607B6C1B684E
:1013C000FA6813441B7819467B6C1B68013BFA686A
:1013D00013441B781B02CA187B6C1B68023BF9681C
:1013E0000B441B781B0413441A467B6C1A603B4B5E
:1013F0001B7823F00103DAB2384B1A703B4B1B7891
:1014000023F00103DAB2394B1A707B6B1978BB6B8E
:101410001A887B6C1868304B1B7800930346F86879
:1014200004F0E8FABB6B1A882B4B1B789BB2134471
:101430009BB201339AB2BB6B1A803B6C1A88BB6BB0
:101440001B889A420BD2BB6B1A88224B1B889A428C
:1014500005D8BB6B1A883B6C1A8000E000BF1E4B9E
:1014600000221A70FB6B00221A7003F0B5BC3B7DA2
:10147000002B05D03B6B3A7D1A70012303F0D5BCDD
:101480001B4B1B78184603F0D5FC03467B757B7D10
:10149000FF2B7CD1FB6B1B78002B67D1144B1B7887
:1014A000472B0CD1BB6B1B8801339AB2BB6B1A80E4
:1014B00000E000BFFB6B00221A7003F0ACBC0C4BC9
:1014C0001B783E2B16D1FB6B05221A70054B0422AC
:1014D0001A7066E024000020CC0B00200C050020D0
:1014E00000F0FF00C00B00200A050020BE0B00200A
:1014F0000D0500209D4B1B78482B07D1FB6B052267
:101500001A707B6C6FF07F421A604AE0974B1B7831
:101510004C2B06D1FB6B05221A707B6C00221A60E3
:101520003FE0924B1B784F2B0FD1914B1B7843F030
:101530000203DAB28E4B1A70FB6B03221A707B6CBB
:101540001B688C4A136003F066BC884B1B782A2BFF
:1015500007D1FB6B04221A70874B01221A7003F02B
:101560005ABC824B1B782C2BA3D000E000BF7F4BD2
:101570001B780293FB8A019301230093002300222E
:101580004B21532003F0EAFCFB2303F04EBC7B6CA1
:101590001A687B7D1146184603F036FE02467B6CC6
:1015A0001A60FB6B1B780133DAB2FB6B1A70FB6BB2
:1015B0001B78052B43F212846D4B1B7803F002035A
:1015C000002B12D07B6C1B689BB2DBB29AB2BB6B58
:1015D0001A80684B1A687B6C1A60654B1B7823F085
:1015E0000203DAB2624B1A707FE0634B1B7803F0A0
:1015F0000103002B16D07B6C1B68DAB25F4B1A70AC
:101600007B6C1B681A0A7B6C1A605C4B1B78012B85
:101610006AD9594B00221A70584B1B78013BDAB239
:10162000564B1A707B6C1B681B0CDAB2544B1A7049
:101630007B6C1B681B0ADAB2524B1A707B6C1B68FE
:10164000DAB2514B1A70BB6B1B88FF2B12D93B6B64
:1016500020221A70454B1B780293FB8A01930323C7
:101660000093002300224B21532003F077FCFA2340
:1016700003F0DBBBBB6B1B881A469B00D31A03F538
:1016800058531A46FB6813443F4A12781A70BB6BD2
:101690001B881A469B00D31A03F557533F331A464B
:1016A000FB681344374A12781A70BB6B1B881A46C2
:1016B0009B00D31A03F557533E331A46FB68134475
:1016C0002F4A12781A702D4B1B78013BDAB22B4B44
:1016D0001A70BB6B1B8801339AB2BB6B1A80274B05
:1016E0001B78002BAFD100E000BF244B01221A7001
:1016F000FB6B00221A7003F071BB1C4B1B78184661
:1017000003F098FB03467B757B7DFF2B53D1174B72
:101710001B78502B3AD17B6C1B68B3F5107F10D926
:10172000124B1B780293FB8A019302230093002340
:1017300000225221532003F011FC7B6C4FF41072F5
:101740001A60BB6B00221A807B6C1B689AB23B6CE0
:101750001A807B6C1A6813465B001344DB001A4640
:101760007B6C1A603B6B38221A7030E00D0500204C
:101770000C050020C4450020C00B0020CC0B00202D
:10178000C10B0020BF0B0020BC0B0020A44B1B781A
:10179000512B03F02583A24B1B780293FB8A019304
:1017A00001230093002300225221532003F0D6FB93
:1017B000FB2303F03ABB7B6C1A687B7D114618460D
:1017C00003F022FD02467B6C1A6003F009BB12E0B5
:1017D000FB8A0133FB82BB6B1B881A46FB681344F0
:1017E000FA8AB9680A4412781A70BB6B1B880133F5
:1017F0009AB2BB6B1A80BB6B1B881A467B6C1B684A
:101800009A4204D23B681B88FA8A9A42E0D9BB6BA1
:101810001B881A467B6C1B689A42C3F0E3823B6BC1
:1018200020221A70012303F000BB7D4B1B78184661
:1018300003F000FB03467B757B7DFF2B40F0A3810B
:101840007B6C1B68DAB2774BA3FB0213D9090B46FA
:101850001B025B1AD31ADAB27B6B1A707B6C002204
:101860001A607B6B1B78002B1BD16D4B1B78502BA8
:1018700007D17B6B1F221A703B6B3B221A7003F05F
:10188000CABA674B1B780293FB8A0193012300932A
:10189000002300220021462003F060FBFC2303F01C
:1018A000C4BA614B1B785BB2002B80F25A817B6B10
:1018B0001B78013B122B00F2448101A252F823F065
:1018C0000D19000859190008BB190008BB190008B8
:1018D000BB190008BB190008BB190008431B00080E
:1018E000131A0008431B0008431B0008431B000891
:1018F000431B0008431B0008431B0008351A00085F
:10190000351A0008051B0008051B0008444B1B780E
:10191000502B11D17B6B00221A703B6B3D221A7049
:10192000424B1B789B08DBB203F00303DBB2013BA5
:10193000DAB2FB6B1A7032E1394B1B780293FB8AE7
:10194000019301230093002300220121462003F08C
:1019500005FBFC2303F069BA7B6B22221A7000237B
:101960007B7506E07B7D324A0021D1547B7D0133BB
:101970007B757B7D0C2BF5D93B7D002B05D03B6B1C
:101980003A7D1A70222303F050BA254B1B78502B56
:1019900003D13B6B44221A7001E1214B1B78029367
:1019A000FB8A019301230093002300220221462099
:1019B00003F0D4FAFB2303F038BA00237B7506E06A
:1019C0007B7D1B4A0021D1547B7D01337B757B7D60
:1019D0000C2BF5D9124B1B78502B09D13B6B4422B1
:1019E0001A707B6B1B782033DAB27B6B1A70D6E0EF
:1019F0007B6B19780A4B1B780293FB8A01930123B6
:101A0000009300230022462003F0A8FAFB2303F0F2
:101A10000CBA3B6B20221A70282303F006BA00BFD1
:101A20000D050020818080802A0000201C460020B7
:101A3000244600207B6B1B78103BDAB27B6B1A705C
:101A4000BB4B00221A60BB4B00221A70BB6B0022FA
:101A50001A80B94B1B78512B09D13B6B4E221A705F
:101A60007B6B1B785B33DAB27B6B1A7097E0B24BFF
:101A70001B78502B0AD17B6B1B785B33DAB23B6B44
:101A80001A70AE4B1A687B6C1A6088E0AA4B1B7800
:101A90004E2B12D17B6B1B78002B0ED13B6B5B2244
:101AA0001A70A74B1B7843F00103DAB2A44B1A70EB
:101AB000A24B1A687B6C1A6071E09F4B1B78482B15
:101AC0000DD17B6B1B785B33DAB23B6B1A70FB6B0F
:101AD00001221A70994B1A687B6C1A605FE07B6B6D
:101AE0001B780833D9B2944B1B780293FB8A01937D
:101AF0000123009300230022462003F02FFAFB234A
:101B000003F093B98C4B1B78502B09D17B6B1B785E
:101B10001933DAB27B6B1A703B6B3B221A703EE0D2
:101B20007B6B1978844B1B780293FB8A019301230A
:101B3000009300230022462003F010FAFC2303F058
:101B400074B97D4B1B780293FB8A019301230093A8
:101B500000230022FF21462003F000FAFC2303F0BB
:101B600064B900230293002301930523009300230B
:101B70000022FF21462003F0F1F93B6B2E221A7060
:101B8000012303F052B97B6C1A687B7D114618461D
:101B900003F03AFB02467B6C1A6003F03CB903F099
:101BA0003AB9654B1B78184603F044F903467B7538
:101BB0007B7DFF2B40F09E827B6C1B68DAB2614B11
:101BC000A3FB0213D9090B461B025B1AD31ADAB224
:101BD0007B6B1A707B6C00221A607B6B1B78502B1E
:101BE00000F2788201A252F823F000BF491D0008DC
:101BF0009D1D0008D5200008D5200008D31D000831
:101C0000731E0008731E0008731E0008DB1E000808
:101C1000371F0008D5200008D5200008D52000086F
:101C2000D5200008D5200008D5200008D5200008C0
:101C3000D5200008D5200008D5200008D5200008B0
:101C4000D5200008D5200008D5200008D5200008A0
:101C5000D5200008D5200008D5200008D520000890
:101C6000D5200008D5200008D5200008D520000880
:101C7000D5200008D5200008D5200008D520000870
:101C8000611F00089F1F00089F1F00089F1F00087A
:101C90009F1F0008D5200008D5200008D520000887
:101CA000D5200008D5200008D52000089F1F000877
:101CB0009F1F00089F1F0008D5200008D52000089E
:101CC0009F1F00081F20000855200008D52000088D
:101CD000D5200008D5200008D5200008D520000810
:101CE000D5200008D5200008D5200008D520000800
:101CF000D5200008D52000086B2000086B200008C4
:101D00006B200008D5200008D5200008D520000849
:101D1000C3200008D5200008D5200008D5200008E1
:101D2000D5200008D5200008D52000086B20000829
:101D3000C4450020BE0B00200D050020180900201E
:101D40000C05002081808080BB6B00221A80A64B8E
:101D50001B78502B03D0A44B1B78482B03D13B6B33
:101D600049221A70D2E1A04B1B78512B06D13B6B54
:101D700048221A707B6B00221A70C7E19A4B1B78BD
:101D80000293FB8A01930123009300230022002188
:101D9000472003F0E3F8FC2303F047B8924B1B788D
:101DA000502B06D17B6B1D221A703B6B3B221A70A5
:101DB000ACE18D4B1B780293FB8A019301230093C6
:101DC000002300220121472003F0C8F8FC2303F080
:101DD0002CB8854B1B78502B03D0834B1B78482B9A
:101DE00006D17B6B00221A703B6B30221A708DE19A
:101DF0007D4B1B784E2B0DD17B6B00221A703B6BF9
:101E000030221A70794B1B7843F00103DAB2774B1A
:101E10001A707BE13B7D002B1BD03B6B3A7D1A7027
:101E2000724B1B7803F02003002B0FD0704B1B78F4
:101E30001A46704B002123F812106D4B1B781A467E
:101E40006D4B0A219954012302F0EFBF032302F0E6
:101E5000ECBF654B1B780293FB8A0193012300932F
:101E6000002300220421472003F078F8FC2302F02D
:101E7000DCBF7B6B1B78043BDAB27B6B1A705A4B6E
:101E80001B78502B03D0584B1B78482B03D13B6B4E
:101E900030221A703AE1544B1B784E2B0AD13B6B1F
:101EA00030221A70514B1B7843F00103DAB24F4BCA
:101EB0001A702BE17B6B1B780433D9B24A4B1B7829
:101EC0000293FB8A01930123009300230022472001
:101ED00003F044F8FC2302F0A8BF7B6B00221A70C9
:101EE000414B1B78502B03D03F4B1B78482B03D121
:101EF0003B6B42221A7009E13B4B1B784E2B0AD1F7
:101F00003B6B42221A70394B1B7843F00103DAB263
:101F1000364B1A70FAE0344B1B780293FB8A01931C
:101F200001230093002300220821472003F016F824
:101F3000FC2302F07ABF3B6B20221A702B4B1B78DC
:101F400003F02003002B08D0294B1B781A462A4B9C
:101F50000C219954012302F068BF0D2302F065BFE4
:101F6000214B1B78512B09D13B6B4A221A70204B15
:101F700000221A707B6B00221A70C7E01A4B1B7884
:101F80000293FB8A01930123009300230022252161
:101F9000472002F0E3FFFB2302F047BF00BF3B7D79
:101FA000002B05D03B6B3A7D1A701B2302F03DBF1E
:101FB0000D4B1B78502B03D00B4B1B78482B03D1B8
:101FC0003B6B4D221A70A1E0074B1B784E2B15D1AD
:101FD0003B6B4D221A70054B1B7843F00103DAB2BC
:101FE000024B1A7092E000BF0D0500200C05002086
:101FF000080500203C0F0020F80E00207B6B1978AC
:10200000434B1B780293FB8A019301230093002327
:102010000022472002F0A2FFFC2302F006BF3C4B47
:102020001B78502B06D17B6B1C221A703B6B3B221A
:102030001A706BE0364B1B780293FB8A01930123E5
:102040000093002300223621472002F087FFFC2363
:1020500002F0EBBE2F4B40221A70BB6B00221A809D
:102060007B6B00221A7000F0BDBF294B1B78502BF0
:1020700003D0274B1B78482B03D13B6B4C221A70A3
:1020800044E0234B1B784E2B0AD13B6B4C221A7039
:10209000214B1B7843F00103DAB21F4B1A7035E075
:1020A0007B6B19781A4B1B780293FB8A01930123EF
:1020B000009300230022472002F050FFFC2302F08F
:1020C000B4BE3B6B20221A707B6B00221A7019235E
:1020D00002F0ABBE0E4B1B780293FB8A01930123E7
:1020E000009300230022FF21472002F037FFFC234A
:1020F00002F09BBE7B6C1A687B7D1146184603F08C
:1021000083F802467B6C1A6002F085BE02F083BE43
:102110000D050020080500200C050020D94B1B7878
:10212000184602F087FE03467B757B7DFF2B40F04F
:10213000A5837B6C1B68DAB2D34BA3FB0213D909CE
:102140000B461B025B1AD31ADAB27B6B1A707B6CDC
:1021500000221A607B6B1B78023B962B00F27E8379
:1021600001A252F823F000BFC5230008FD23000898
:10217000FD230008FD230008492400085D2800080D
:102180005D2800085D2800085D2800085D2800081B
:102190005D2800085D2800085D2800085D2800080B
:1021A000FD230008FD2300085D2800085D280008C5
:1021B0005D2800085D2800085D2800085D280008EB
:1021C0005D2800085D2800085D2800085D280008DB
:1021D0005D2800085D2800085D2800085D280008CB
:1021E0005D2800085D2800085D2800087F2400089D
:1021F000EF240008EF2400085D2800085D2800088F
:102200005D2800085D2800085D2800085D2800089A
:102210005D2800085D2800085D2800085D2800088A
:102220005D2800085D2800085D2800085D2800087A
:102230005D2800085D2800085D2800085D2800086A
:102240005D2800085D2800085D2800085D2800085A
:102250005D2800085D2800085D2800085D2800084A
:102260005D2800085D2800085D2800085D2800083A
:102270005D2800089D1F00089D1F00089525000887
:102280005D2800085D2800085D2800085D2800081A
:102290005D2800085D2800085D2800085D2800080A
:1022A0005D2800085D2800085D2800085D280008FA
:1022B0005D2800085D2800085D2800085D280008EA
:1022C0005D2800085D2800085D2800085D280008DA
:1022D0005D2800085D2800085D2800085D280008CA
:1022E0005D2800085D2800085D2800085D280008BA
:1022F0005D2800085D2800085D2800085D280008AA
:102300005D2800085D2800085D2800085D28000899
:102310005D2800085D2800085D2800085D28000889
:102320005D2800085D2800085D2800085D28000879
:102330005D2800085D2800085D2800085D28000869
:102340005D2800085D2800085D2800085D28000859
:102350005D2800085D2800085D2800085D28000849
:102360005D2800085D2800085D2800085D28000839
:102370005D2800085D280008C72600085D280008C1
:1023800073270008812700085D2800085D280008E1
:102390005D2800085D2800085D2800085D28000809
:1023A000352600089D1F00085D2800085D280008EC
:1023B0005D2800085D280008132700085D28000834
:1023C0008F2700083B7D002B08D03B6B3A7D1A70AD
:1023D0007B6C01221A60082302F027BD294B1B7871
:1023E0000293FB8A01930123009300230022022120
:1023F0004D2002F0B3FDFB2302F017BD3B7D002B07
:1024000009D03B6B3A7D1A707B6C4FF6FF721A60F5
:10241000172302F00ABD1B4B1B78502B03D13B6BDB
:102420004B221A7036E27B6B1978164B1B7802939D
:10243000FB8A019301230093002300224D2002F028
:102440008DFDFB2302F0F1BC0E4B1B78502B06D107
:102450003B6B39221A707B6B01221A701AE2094B0E
:102460001B780293FB8A019301230093002300222F
:1024700006214D2002F072FDFB2302F0D6BC0023A2
:102480007B750AE00D050020818080807B7DA94A54
:102490000021D1547B7D01337B757B7D0C2BF5D9DD
:1024A0003B7D002B08D03B6B3A7D1A707B6B002282
:1024B0001A70212302F0B9BC9F4B1B78502B06D118
:1024C0003B6B44221A707B6B21221A70E2E19A4B1B
:1024D0001B780293FB8A01930123009300230022BF
:1024E00023214D2002F03AFDFB2302F09EBC7B6BC2
:1024F0001B78243BDAB27B6B1A703B7D002B17D024
:102500003B6B3A7D1A708D4B1B7803F02003002B38
:102510000BD08B4B1B781A467B6B1B780833D9B2D8
:10252000884B9954012302F080BC1E2302F07DBC2D
:10253000814B1B78502B03D07F4B1B78482B06D147
:102540007B6B1D221A703B6B42221A70A2E17A4B00
:102550001B784E2B0DD17B6B1D221A703B6B4222D8
:102560001A70764B1B7843F00103DAB2734B1A7082
:1025700090E17B6B1978704B1B780293FB8A019377
:1025800001230093002300224D2002F0E7FCFB23EF
:1025900002F04BBC3B7D002B21D03B6B3A7D1A7087
:1025A000664B1B7803F02003002B15D0644B1B787F
:1025B0001A46654B002123F81210614B1B781A460E
:1025C000604B062199545E4B1B781A465F4B0121E4
:1025D0009954012302F029BC082302F026BC564B73
:1025E0001B78502B03D0544B1B78482B03D13B6BEB
:1025F00050221A704EE1504B1B784E2B0AD13B6B88
:1026000050221A704D4B1B7843F00103DAB24B4B4A
:102610001A703FE1484B1B780293FB8A0193012318
:1026200000930023002247214D2002F097FCFB235A
:1026300002F0FBBB404B1B78502B03D03E4B1B786A
:10264000482B03D13B6B46221A7023E13A4B1B788F
:102650004E2B0AD13B6B46221A70384B1B7843F045
:102660000103DAB2354B1A7014E13B7D002B1AD00E
:102670003B6B3A7D1A70314B1B7803F02003002B23
:1026800006D02F4B1B781A462E4B0E21995407E08B
:1026900008F07AFC03460C46184621460CF036FE3C
:1026A000012302F0C2BB244B1B780293FB8A0193E7
:1026B000012300930023002290214D2002F04EFCC4
:1026C000FB2302F0B2BB1C4B1B78502B06D17B6B5B
:1026D0002F221A703B6B3B221A70DBE0164B1B78E3
:1026E000512B06D13B6B36221A707B6B03221A707A
:1026F000D0E0114B1B780293FB8A019301230093D6
:102700000023002286214D2002F028FCFC2302F049
:102710008CBB094B1B78512B1AD13B6B5D221A7075
:10272000074B00221A70BB6B00221A807B6B0022C1
:102730001A70AFE0244600200D0500200C05002093
:1027400008050020F80E00203C0F00201C0C002083
:102750007B6B1978A64B1B780293FB8A01930123AC
:102760000093002300224D2002F0F8FBFB2302F02F
:102770005CBB7B6B1B7843F01003DAB27B6B1A7087
:102780007B6B1B7843F02003DAB27B6B1A707B6B98
:102790001B7883F02003DAB27B6B1A703B7D002B31
:1027A00031D03B6B3A7D1A70924B1B7803F02003BB
:1027B000002B1CD0904B1B781A46904B002123F81D
:1027C00012108D4B1B781A467B6B1B7803F00103AC
:1027D000DBB2C3F10603D9B2894B9954864B1B78FF
:1027E0001A46884B01219954012302F01EBB7B6BD2
:1027F0001B7803F00103002B02D02D2302F015BB40
:10280000082302F012BB7A4B1B78502B03D13B6B91
:1028100034221A703EE0764B1B78512B0DD13B6B66
:1028200045221A70BB6B00221A807B6B1B7803F069
:102830003003DAB27B6B1A702CE07B6B19786C4B2F
:102840001B780293FB8A019301230093002300224B
:102850004D2002F083FBFB2302F0E7BA644B1B78A8
:102860000293FB8A01930223009300230022FF219D
:102870004D2002F073FBF92302F0D7BA7B6C1A6883
:102880007B7D1146184602F0BFFC02467B6C1A6045
:1028900002F0C1BA02F0BFBA554B1B78184602F0DD
:1028A000C9FA03467B757B7D022B40F298803B6B17
:1028B0003B221A707B6C00221A604D4B1B78492B0F
:1028C0000BD13B6B3A221A707B6C4FF02A321A60A4
:1028D000FB6B00221A7002F09EBA454B1B78442B0A
:1028E00004D17B6B0F221A7002F095BA404B1B7813
:1028F000422B07D13B6B3C221A707B6B12221A7061
:1029000002F089BA3A4B1B78522B04D17B6B102210
:102910001A7002F080BA364B1B78542B10D1FB6B27
:102920001B78013BDBB203F00F03DAB2FB6B1A70CA
:102930003B6B3E221A707B6B04221A7002F06BBA5A
:102940002B4B1B78572B07D13B6B3C221A707B6BB0
:1029500014221A7002F05FBA254B1B78462B04D163
:102960007B6B11221A7002F056BA214B1B78412B57
:1029700010D13B6B47221A70234B47221A70FB6B16
:102980001B78013BDBB203F00F03DAB2FB6B1A706A
:1029900002F041BA164B1B78532B04D17B6B2E22CD
:1029A0001A7002F038BA124B1B78432B07D1FB6B1D
:1029B0000C221A703B6B27221A7002F02CBA0C4BB7
:1029C0001B780293FB8A01930123009300230022CA
:1029D000FF21552002F0C2FAFB2302F026BAFB6B5E
:1029E0001A787B7D1343DAB2FB6B1A7002F013BACC
:1029F0000D0500200C050020080500203C0F0020DC
:102A0000F80E00201C0C0020BE0B0020AC4B002256
:102A10001A70AC4B1B78492B0DD13B6B3C221A70C2
:102A2000A94B7F221A70A94B00221A707B6B3122AE
:102A30001A7002F0F0B9A34B1B78542B04D13B6BF6
:102A400061221A7002F0E7B99E4B1B78522B0BD112
:102A50009F4B1B7843F00203DAB29D4B1A703B6B1D
:102A600061221A7002F0D7B9964B1B78532B0DD107
:102A700007F0CEFC3B6B2E221A703B7D002B02D060
:102A80003B6B3A7D1A70012302F0CFB98D4B1B7856
:102A90000293FB8A01930123009300230022432128
:102AA000552002F05BFAFB2302F0BFB9854B1B787F
:102AB0000A2B04D0834B1B780D2B42F095813B6B86
:102AC00020221A7002F090B97E4B1B78184602F053
:102AD000B1F903467B757B7DFF2B3DD13B7D002B00
:102AE00009D03B6B3A7D1A70794B1B7803F02003B9
:102AF000002B2CD012E07B6B1B780433D9B2714BC6
:102B00001B780293FB8A0193012300930123002287
:102B1000472002F023FAFB2302F087B97B6B1B7876
:102B2000012B14D86B4B1B781A467B6C1B6899B22F
:102B3000694B23F81210674B1B781A467B6B1B7886
:102B40000A33D9B2654B9954012302F06EB97B6BFD
:102B50001B78033302F069B97B6C1A687B7D1146E0
:102B6000184602F065FB02467B6C1A6002F053B90E
:102B7000544B1B78184602F05DF903467B757B7D4C
:102B8000FF2B2ED13B7D002B07D03B6B3A7D1A707B
:102B90007B6B1B78133302F048B97B6B1B78002BDF
:102BA0000FD0484B1B780293FB8A019301230093BB
:102BB0000123002219214D2002F0D0F9FB2302F05D
:102BC00034B9404B1B780293FB8A01930123009395
:102BD000012300220821472002F0C0F9FB2302F064
:102BE00024B97B6C1A687B7D1146184602F020FBE5
:102BF00002467B6C1A6002F00EB9324B1B78184605
:102C000002F018F903467B757B7DFF2B72D13B7D6B
:102C1000002B07D03B6B3A7D1A70FB6B1B78002BA7
:102C200017D010E07B6B1978264B1B780293FB8A38
:102C3000019301230093032300224D2002F08EF91B
:102C4000FB2302F0F2B87B6C1B684FF6FF729342D5
:102C50000ED17B6B1B7803F02003002B03D0204B9D
:102C60001B881A4602E01F4B1B881A467B6C1A60B1
:102C7000174B1B7803F02003002B35D0154B1B7826
:102C80001A467B6C1B6899B2134B23F81210114B38
:102C90001B7819467B6B1B7803F02003002B09D1AE
:102CA0007B6B1B7803F01003002B01D0292302E07B
:102CB000042300E00123094A5354012302F0B5B86C
:102CC000250900200D0500202409002028090020E6
:102CD0000C050020080500203C0F0020F80E002005
:102CE000524600204C460020FB6B04221A70092338
:102CF00002F09BB8FB6B1B780133DAB2FB6B1A70E6
:102D0000FB6B1B78042B02D9F72302F08EB87B6C87
:102D10001A687B7D1146184602F076FA02467B6CF3
:102D20001A6002F078B8A74B1B78184602F082F8B8
:102D300003467B757B7DFF2B40F0E0807B6B1B782F
:102D400003F00203002B00F085803B7D002B09D0AF
:102D50003B6B3A7D1A709C4B1B7803F02003002BD1
:102D600057D00FE0974B1B780293FB8A0193012306
:102D700000930323012298214D2002F0EFF8FB235A
:102D800002F053B87B6B1B7803F00403002B37D0A1
:102D90007B6C1B684FF6FF72934211D18B4B1B78F3
:102DA00019467B6B1B7803F02003002B02D0884B65
:102DB0001B8801E0874B1B88874A22F8113008E006
:102DC000824B1B781A467B6C1B6899B2824B23F8A6
:102DD00012107E4B1B7819467B6B1B7803F0200387
:102DE000002B09D17B6B1B7803F01003002B01D063
:102DF000292302E0042300E00123784A535405E02C
:102E0000724B1B781A46754B00219954012302F02E
:102E10000CB87B6B1B7803F00403002B02D1012359
:102E200002F003B87B6C1B684FF6FF7293420ED121
:102E30007B6B1B7803F02003002B03D0644B1B88B3
:102E40001A4602E0634B1B881A467B6C1A60092302
:102E500001F0EBBF5B4B1B78502B2DD17B6B1B78AC
:102E600003F00103002B27D17B6B1B7843F0030396
:102E7000DAB27B6B1A70FB6B1B78002B11D00CF055
:102E80004FFA0346FA6B127893FBF2F102FB01F260
:102E90009B1A9BB29B009BB25B429AB2BB6B1A809F
:102EA00070E04F4B1B789BB29B009BB2C3F10403B5
:102EB0009AB2BB6B1A8065E0424B1B784E2B0DD14A
:102EC0007B6B1B7803F00103002B07D13E4B1B7873
:102ED00043F00103DAB23C4B1A7053E0394B1B78D4
:102EE0000293FB8A0193012300930023012298217E
:102EF0004D2002F033F8FB2301F097BF7B6B1B786A
:102F000003F00103002B27D0BB6B1B8801339AB25F
:102F1000BB6B1A80BB6B1B88002B01F06787BB6BF8
:102F20001B88042B01F262877B6C1A687B7D11463B
:102F3000184602F069F902467B6C1A60BB6B1B886D
:102F4000042B41F053877B6B1B7843F00403DAB208
:102F50007B6B1A7001F04ABFFB6B1B781A467B7DB6
:102F60001146184602F064F90346DAB2FB6B1A7098
:102F7000FB6B1B78C82B41F23987FB6BC8221A7098
:102F800001F034BF01F032BF0E4B1B78184601F040
:102F900051FF03467B757B7DFF2B40F0DD80094BA5
:102FA0001B78522B04D17B6B04221A7001F033BFC3
:102FB000044B1B78482B15D17B6B08221A7001F04B
:102FC0002ABF00BF0D0500200C05002008050020C9
:102FD000524600204C4600203C0F0020F80E0020F6
:102FE000A8060020A14B1B7823F00D03DAB29F4BFB
:102FF0001A703B6B35221A707B6B1B7803F004034D
:10300000002B0BD09A4B1B7803F00103002B05D14A
:10301000984B1B781033DAB2964B1A70954B1B788D
:103020001A46944B1B781946934B5B5C03F07F0365
:10303000D9B2914B9954914B1B78542B07D13B6BD0
:103040002E221A70BB6B2C221A8001F0E4BE8B4B2F
:103050001B78502B04D1BB6B01221A8001F0DBBE20
:10306000864B1B784C2B04D1BB6B02221A8001F0DB
:10307000D2BE824B1B784A2B04D1BB6B03221A8031
:1030800001F0C9BE7D4B1B78492B04D1BB6B0422D8
:103090001A8001F0C0BE794B1B784F2B04D1BB6B5B
:1030A00005221A8001F0B7BE3B7D002B12D03B6B8E
:1030B0003A7D1A706F4B1B781A466E4B1B78194677
:1030C0006D4B5B5C63F07F03D9B26B4B995401236A
:1030D00001F0ABBE694B1B784D2B0BD1634B1B78BA
:1030E00043F02003DAB2614B1A703B6B25221A7051
:1030F00001F091BE614B1B78472B0BD15B4B1B78CA
:1031000043F02003DAB2594B1A703B6B24221A7039
:1031100001F081BE574B1B783F2B0DD8574B1B78C6
:103120000293FB8A0193012300930023012296213D
:103130004D2001F013FF0CE0504B1B780293FB8AEB
:10314000019301230093002301223721472001F03E
:1031500005FFFB2301F069BE7B6B1B78082B15D1A3
:10316000444B1B781B01DAB2424B1A70414B1A7860
:103170007B7D1343DAB23F4B1A703E4B1B7803F052
:103180003F03DAB23B4B1A7001F045BE384B1B7857
:1031900003F00103002B17D07B7D013BDBB203F072
:1031A00007037B757B7D012202FA03F35BB203F018
:1031B0003F035AB22F4B1B785BB213435BB2DAB2B8
:1031C0002C4B1A7001F027BE2A4A7B7D137001F048
:1031D00022BE2A4B1B78184601F02CFE03467B7555
:1031E0007B7DFF2B30D13B7D002B07D03B6B3A7DA5
:1031F0001A70FB6B1B78002B1ED017E07B6B1B78C3
:103200009B10DBB203F00103DBB20133DAB21B4BDC
:103210001B780293FB8A01930123009303239621D9
:103220004D2001F09BFEFB2301F0FFBD7B6C1B6872
:103230004FF6FF72934204D1114B1B881A467B6CE8
:103240001A600A2301F0F1BDFB6B1B780133DAB27F
:10325000FB6B1A707B6C1A687B7D1146184601F077
:10326000D3FF02467B6C1A6001F0D5BD0C0500202F
:10327000A406002008050020F80E00200D050020FF
:10328000524600209A4B1B78184601F0D3FD0346A6
:103290007B757B7DFF2B40F0D980954B1B78522BA3
:1032A00009D17B6B1B7803F00103002B03D17B6BEF
:1032B00004221A7019E18E4B1B78482B09D17B6BC5
:1032C0001B7803F00103002B03D17B6B80221A7063
:1032D0000BE1874B1B78502B0DD17B6B1B7803F0D8
:1032E0000103002B07D17B6B1B7843F00103DAB29B
:1032F0007B6B1A70F9E07E4B1B784E2B14D17B6BE5
:103300001B7803F00103002B0ED17B6B1B7843F07D
:103310000103DAB27B6B1A70764B1B7843F0010322
:10332000DAB2744B1A70E0E0714B1B783E2B0DD172
:103330007B6B1B7803F00103002B07D07B6B1B78A2
:1033400043F00203DAB27B6B1A70CEE0684B1B7855
:103350003C2B0DD17B6B1B7803F00103002B07D0B6
:103360007B6B1B7823F00203DAB27B6B1A70BCE034
:103370005F4B1B783D2B0DD17B6B1B7803F001035A
:10338000002B07D07B6B1B7843F00A03DAB27B6B10
:103390001A70AAE0564B1B78212B14D17B6B1B783B
:1033A00003F00103002B0ED07B6B1B7843F0080366
:1033B000DAB27B6B1A707B6B1B7823F00203DAB2F4
:1033C0007B6B1A7091E03B7D002B03D03B6B3A7D09
:1033D0001A7026E0464B1B783F2B0AD17B6B1B787B
:1033E00043F01003DAB27B6B1A703B6B2E221A701B
:1033F00017E07B6B1B789B10DBB203F00103DBB2A1
:103400000133DAB23A4B1B780293FB8A0193012312
:10341000009300232521472001F0A0FDFB2301F0AC
:1034200004BD7B6B1B7803F00403002B0BD0324BE5
:103430001B7803F00103002B05D1304B1B781033B0
:10344000DAB22E4B1A701A2301F0EFBC7B6B1B789B
:1034500003F00103002B0BD07B6C1A687B7D1146B7
:10346000184601F0E5FE02467B6C1A6001F0D3BC01
:103470007B6B1B78802B15D1204B1B781B01DAB29C
:103480001E4B1A701D4B1A787B7D1343DAB21B4B0F
:103490001A701A4B1B7803F03F03DAB2174B1A70FD
:1034A00001F0B9BC144B1B7803F00103002B17D0BB
:1034B0007B7D013BDBB203F007037B757B7D012243
:1034C00002FA03F35BB203F03F035AB20B4B1B78D3
:1034D0005BB213435BB2DAB2084B1A7001F09BBCCB
:1034E000064A7B7D137001F096BC01F094BC00BFCE
:1034F0000D0500200C050020A40600200805002072
:10350000964B1B78184601F095FC03467B757B7D36
:10351000FF2B79D13B7D002B18D03B6B3A7D1A7085
:103520007B6B1B78032B2DD18D4B00221A8000233F
:103530007B7507E07B7D8B4A002122F813107B7D91
:1035400001337B757B7D012BF4D95AE0834B1B78CB
:10355000502B07D17B6B1B78032B03D17B6B002295
:103560001A700FE07D4B1B780293FB8A01930123B5
:1035700000930023012286214D2001F0EFFCFB2364
:1035800001F053BCFB6B1B781A46764B33F81230B4
:103590001BB2DB431AB2724BB3F9003013401AB2BC
:1035A0006F4B1A806E4BB3F900301A467B6C1B6868
:1035B0001340002B15D17B6C1B689AB2684BB3F992
:1035C00000309BB213439BB21AB2654B1A80FB6B5F
:1035D0001B781A467B6C1B6899B2624B23F8121059
:1035E0000FE05E4B1B780293FB8A0193022300934A
:1035F0000323012286214D2001F0B0FCF92301F0C4
:1036000014BC012301F011BC7B6B1B78012B14D877
:103610007B7D03F007037B757B6C1B687A7D012142
:1036200001FA02F21A437B6C1A607B6B1B78013340
:10363000DAB27B6B1A7001F0EEBB7B6B1B78032B4D
:1036400017D17B7D012B0FD9444B1B780293FB8A4A
:103650000193022300930023012286214D2001F0D3
:103660007DFCF92301F0E1BBFB6B7A7D1A7001F060
:10367000D2BB3A4B1B780293FB8A0193032300933E
:103680000323012286214D2001F068FCFA2301F07A
:10369000CCBB324B1B78184601F0CCFB03467B7544
:1036A0007B7DFF2B64D13B7D002B05D03B6B3A7DAE
:1036B0001A70012301F0B9BB284B1B782D2B0FD1B9
:1036C000294B1B7823F00C03DAB2274B1A70264BD8
:1036D0001B7843F00803DAB2234B1A7001F088BB61
:1036E0001E4B1B782B2B0FD11F4B1B7823F00C0389
:1036F000DAB21D4B1A701C4B1B7843F00403DAB28C
:10370000194B1A7001F074BB144B1B78522B03D069
:10371000124B1B78722B11D1FB6B04221A700BF029
:10372000FFFD0246114B1B88013392FBF3F103FBB3
:1037300001F3D31A1A467B6C1A6029E0074B1B78F9
:103740000293FB8A019301230093032300220021AB
:10375000472001F003FCFB2301F067BB0D050020AF
:10376000A6060020600C00200C050020540000205C
:103770007B6C1A687B7D1146184601F045FD0246B8
:103780007B6C1A60FB6B1B780133DAB2FB6B1A702F
:10379000FB6B1B78032B41F22B83BB6B1B88072B26
:1037A00012D93B6B20221A70AA4B1B780293FB8A1A
:1037B000019303230093032300220021472001F0FB
:1037C000CDFBFA2301F031BBA34B1B789B10DBB27E
:1037D00003F00303DAB2A14B1A70BB6B1B881C46C3
:1037E000BB6B1B881A469E4B33F8123018469D4B14
:1037F0001B881A46796C06F055FB03469AB2984B23
:1038000023F81420944B1B7823F00C03DAB2924B6C
:103810001A70954B1B7843F00203DAB2924B1A7080
:10382000BB6B1B8801339AB2BB6B1A80FB6B002207
:103830001A707B6C00221A6001F0DABA854B1B7893
:10384000184601F0F7FA03467B757B7DFF2B40F0AD
:10385000A7807B6B1B7803F00203002B57D03B7DC6
:10386000002B08D03B6B3A7D1A70FB6B00221A705C
:10387000182301F0DABA774B1B782D2B0FD1764B3A
:103880001B7823F00C03DAB2734B1A70724B1B785F
:1038900043F00803DAB2704B1A7001F0BCBA6D4BFA
:1038A0001B782B2B0FD16C4B1B7823F00C03DAB257
:1038B000694B1A70684B1B7843F00403DAB2664B0D
:1038C0001A7001F0A8BA634B1B78522B0FD10BF082
:1038D00027FD0246634B1B88013392FBF3F103FB88
:1038E00001F3D31A1A467B6C1A6001F094BA594B53
:1038F0001B780293FB8A0193012300930123012289
:103900000021472001F02AFBFB2301F08EBA514B26
:103910001B78502B03D04F4B1B78482B09D17B6B66
:103920001B7803F00103002B03D17B6B03221A7079
:1039300057E0484B1B784E2B10D17B6B1B7803F064
:103940000103002B0AD17B6B03221A70424B1B78B8
:1039500043F00103DAB2404B1A7042E03D4B1B7852
:10396000522B0DD17B6B1B7803F00103002B07D189
:103970007B6B1B7843F00703DAB27B6B1A7030E085
:10398000344B1B780293FB8A01930123009300239D
:1039900001220021472001F0E1FAFB2301F045BAA2
:1039A0007B6B1B7803F00103002B0BD07B6C1A6838
:1039B0007B7D1146184601F03BFC02467B6C1A6089
:1039C00001F029BABB6B1B881AB27B7D012101FA79
:1039D00003F31BB213431BB29AB2BB6B1A8001F004
:1039E0001ABA01F018BA1B4B1B78184601F022FADC
:1039F00003467B757B7DFF2B1CD13B7D002B08D0C4
:103A00003B6B3A7D1A70FB6B00221A70172301F092
:103A10000CBA7B6B19780F4B1B780293FB8A0193CE
:103A200001230093032300224D2001F097FAFB238A
:103A300001F0FBB97B7D072B18D87B6C1B687A7D66
:103A400040F2011101FA02F21A437B6C1A6001F094
:103A5000E2B900BF0D0500200C0500204E460020F5
:103A6000AC0E002054000020580600207B6B197813
:103A7000AD4B1B780293FB8A01930223009303232F
:103A800000224D2001F06AFAF92301F0CEB9A64BCD
:103A90001B78184601F0CEF903467B757B7DFF2B22
:103AA00054D13B7D002B05D03B6B3A7D1A700C2323
:103AB00001F0BBB99C4B1B78572B0AD17B6C1B6860
:103AC0001946012001F0A0FB02467B6C1A6001F050
:103AD000A2B9954B1B78532B0AD17B6C1B681946F6
:103AE000022001F091FB02467B6C1A6001F093B951
:103AF0008D4B1B784B2B0AD17B6C1B68194603201E
:103B000001F082FB02467B6C1A6001F084B9864B9F
:103B10001B78472B0AD17B6C1B681946042001F0E7
:103B200073FB02467B6C1A6001F075B97E4B1B7803
:103B30000293FB8A019301230093032300220621B1
:103B40004D2001F00BFAFB2301F06FB97B6C1A6872
:103B50007B7D1146184601F057FB02467B6C1A60CC
:103B600001F059B9704B1B78184601F063F9034610
:103B70007B757B7DFF2B3CD13B7D002B0CD03B6BC1
:103B80003A7D1A70FB6B00221A70684B1B7803F0A9
:103B90002003002B20D00FE0634B1B780293FB8A9D
:103BA0000193012300930123002290214D2001F075
:103BB000D5F9FB2301F039B95D4B1B781A467B6CB4
:103BC0001B6899B25B4B23F81210594B1B781A46AD
:103BD000594B0D21995404E07B6C1B6818460BF07F
:103BE00095FB7B6C1B6818460BF090FB012301F0E2
:103BF0001CB97B6C1A687B7D1146184601F018FBD6
:103C000002467B6C1A6001F006B93B7D002B08D0A0
:103C10003B6B3A7D1A70FB6B00221A700E2301F089
:103C200004B9FB6B1B78032B0FD93F4B1B78029316
:103C3000FB8A019301230093002300224921552090
:103C400001F08CF9FB2301F0F0B8FB6B1B7801331A
:103C5000DAB2FB6B1A707B6C1B681B02324A12785B
:103C60001A447B6C1A6001F0D6B82F4B1B781846AB
:103C700001F0E0F803467B757B7DFF2B5ED13B7D39
:103C8000002B06D03B6B3A7D1A707B6B1B7801F0E2
:103C9000CCB8254B1B78502B01F0AC80224B1B7805
:103CA000482B01F0A780204B1B784E2B08D11F4BCF
:103CB0001B7843F00103DAB21C4B1A7001F09AB87A
:103CC0007B6B1B78122B02D142237B751CE07B6B34
:103CD0001B78142B02D157237B7515E07B6B1B7867
:103CE000352B0FD1104B1B780293FB8A01930123D4
:103CF0000093002300224D21532001F02FF9FB23D4
:103D000001F093B843237B75074B1B78797D0293B1
:103D1000FB8A01930123009300230022552001F028
:103D20001DF9FB2301F081B80D0500200C050020D2
:103D3000080500203C0F0020F80E00207B6C1A685C
:103D40007B7D1146184601F073FA02467B6C1A60BF
:103D500001F050B83B7D002B05D03B6B3A7D1A70CB
:103D6000152301F062B87B6C1B68002B40F0788152
:103D7000AC4B1B78303B2F2B00F24D8101A252F847
:103D800023F000BF553F0008174000081740000807
:103D900017400008174000081740000817400008A7
:103DA0001740000817400008174000081740000897
:103DB0001740000817400008174000081740000887
:103DC000174000081740000807400008693E000837
:103DD0007D3E0008953F000817400008613E00083E
:103DE000174000080F400008D53E000817400008A3
:103DF00017400008174000088D3F0008633F000887
:103E0000FF3F00089D3E000817400008713F000872
:103E1000C33E0008533E0008B13E0008453E00087E
:103E20001740000817400008174000081740000816
:103E3000174000087F3F000817400008174000089F
:103E4000473F0008FB6B1B781946774806F000F8DF
:103E50004FE2FB6B1B781946744805F0F9FF48E206
:103E60007B6C03221A603BE2714B1B789AB2FB6BAE
:103E70001B781946104601F022F83AE27B6C0022CA
:103E80001A606C4B00221A70BB6B00221A807B6B8D
:103E900000221A703B6B5F221A7021E2664B1B787E
:103EA0009AB2FB6B1B781946104601F008F820E225
:103EB000624B1A88FB6B1B781946104600F0FFFF17
:103EC00017E25F4B1A88FB6B1B781946104600F00F
:103ED000F6FF0EE25B4B1B680321184601F0CAF99E
:103EE00003461A46FB6B1B7819461046FCF79AFBF3
:103EF000544B1B680221184601F0BCF903461A46D0
:103F0000FB6B1B7819461046FCF78CFB4D4B1B686E
:103F10000121184601F0AEF903461A46FB6B1B78E7
:103F200019461046FCF77EFB464B1B6800211846DD
:103F300001F0A0F903461A46FB6B1B7819461046A0
:103F4000FCF770FBD5E1FB6B1B7819462020FCF7D2
:103F500069FBCEE1FB6B1B7819460020FCF762FB86
:103F6000C7E1FB6B1B7819460A20FCF75BFBC0E13D
:103F7000FB6B1B7819460D20FCF754FBB9E1FB6B7A
:103F80001B7819465C20FCF74DFBB2E17B6C0122EB
:103F90001A60A5E12C4B1B7803F07F03012B06D19F
:103FA000FB6B1B781946294805F052FF9AE1264B16
:103FB0001B7803F00303022B06D1FB6B1B78194619
:103FC000234805F045FF8DE11F4B1B7803F00303E9
:103FD000032B06D1FB6B1B7819461E4805F038FFF2
:103FE00080E1194B1B7803F07F03042B40F07A81AA
:103FF000FB6B1B781946184805F02AFF72E17B6CB1
:1040000002221A606CE17B6C04221A6068E17B6C0E
:1040100005221A6064E1FB6B1B7819460F4805F016
:1040200017FF66E10D050020D4F40008E0F4000855
:1040300026000020BD0B0020A80600200A05002055
:1040400072000020BC0E00202A000020E8F40008C6
:10405000F0F40008F8F4000800F5000808F500087E
:104060007B6C1B68012B1BD1A64B1B78184600F0FC
:10407000E1FE03467B757B7D072B00F235817B7D5E
:10408000A14A32F813301A467B6C1A607B6C1B68AD
:104090009AB2FB6B1B781946104600F010FF23E123
:1040A0007B6C1B68022B68D1964B1B78184600F07E
:1040B000C1FE03467B757B7D072B00F21781934B76
:1040C0001B7803F00303032B32D1914B1B781A4664
:1040D0007B7D42FA03F303F00103002B10D08D4BDC
:1040E0001B78DA437B7D42FA03F303F00103002BD4
:1040F00006D0FB6B1B7819464C20FCF793FAF5E0D1
:10410000854B1B781A467B7D42FA03F303F00103CB
:10411000002B06D0FB6B1B7819465320FCF782FA64
:10412000E4E0FB6B1B7819464E20FCF77BFADDE0E0
:10413000764B1B7803F00303022B17D1764B1B78C9
:104140001A467B7D42FA03F303F00103002B06D0ED
:10415000FB6B1B7819465320FCF764FAC6E0FB6B37
:104160001B7819464E20FCF75DFABFE0FB6B1B780D
:1041700019464C20FCF756FAB8E07B6C1B68032B01
:1041800022D1604B1B78302B08D1644B1A88FB6B13
:104190001B781946104600F092FEAAE0594B1B7896
:1041A000312B08D15E4B1A88FB6B1B7819461046E1
:1041B00000F085FE9DE05B4B1A88FB6B1B7819466F
:1041C000104600F07CFE94E07B6C1B68042B59D1F8
:1041D0004C4B1B78502B08D1534B1A88FB6B1B7828
:1041E0001946104600F06BFE82E0464B1B78552BBB
:1041F0000DD14D4B1B881A464C4B93FBF2F39AB2F0
:10420000FB6B1B781946104600F059FE70E03D4BE1
:104210001B78462B08D1464B1A88FB6B1B78194636
:10422000104600F04CFE63E0364B1B784C2B08D157
:10423000404B1A88FB6B1B781946104600F03FFE76
:1042400056E0304B1B78432B0DD13B4B1A683B4B50
:104250001B68B2FBF3F39AB2FB6B1B78194610464E
:1042600000F02DFE44E0274B1B78542B40D1344BFB
:104270001B88013B9AB2FB6B1B781946104600F075
:104280001EFE35E07B6C1B68062B16D12D4B1B7870
:104290001B01DCB21B4B1B78184600F0CBFD03461C
:1042A0002344DAB2274B1A70264B1A78FB6B1B7823
:1042B00019461046FCF7B6F91BE07B6C1B68052B12
:1042C00040F09A850F4B1B78184600F0B3FD03466B
:1042D0001A461C4B1A707B6C06221A6000F08CBDCB
:1042E00000F08ABD00BF04E000BF02E000BF00E0B4
:1042F00000BF7B6C00221A60134B1A783B6B1A705C
:1043000000F089BD0D050020AC0E00202A00002021
:10431000270000204C060020660000208E4600206A
:104320004C460020504600204000002040420F0034
:104330003A0000202E000020540600203400002007
:104340003C000020BD0B0020BE0B002000BFAA4B8C
:104350001B78502B0BD1BB6B00221A803B6B402289
:104360001A703B6B1A78A54B1A7000F054BDA24B23
:104370001B78482B0AD17B6B00221A70BB6B002282
:104380001A803B6B52221A7000F045BDFB6B1B7804
:104390000C2B01D1432300E054237B75964B1B78F3
:1043A000797D0293FB8A019301230093002301226C
:1043B000552000F0D3FDFB2300F037BD8E4B1B785A
:1043C0000A2B07D08C4B1B780D2B03D08A4B1B7804
:1043D000002B05D13B6B20221A70152300F025BD60
:1043E000854B1B785C2B0BD13B6B1A78834B1A7077
:1043F0003B6B47221A707B6C00221A6000F00BBDE9
:104400007D4B1A78FB6B1B7819461046FCF70AF9AE
:1044100000F001BD784B1B78184600F00BFD0346F9
:104420007B757B7DFF2B00F0A8807B6B1B78002BBE
:1044300000F09480BB6B1B881A467B7D11461846A2
:1044400000F0E2FE03469AB2BB6B1A807B6B1B78CE
:104450000133DAB27B6B1A707B6B1B78032B40F253
:10446000D784664B1A783B6B1A70BB6B1B88B3F50D
:10447000107F03D3BB6B40F23F221A80BB6B1B88BB
:104480001A4652001344DB009AB2BB6B1A80002319
:104490007B751FE07B6C1B685A007B6C1A60BB6BE2
:1044A0001B881A46FB6813441A78554B1B78134037
:1044B000DBB2002B05D07B6C1B6843F001027B6CE8
:1044C0001A60BB6B1B8801339AB2BB6B1A807B7D71
:1044D00001337B757B7D172BDCD97B6C1B681B0A3A
:1044E000DAB27B6B1A707B6C1B68DAB27B6C1B6870
:1044F0001B0A03F47F431A437B6C1A607B6B1B78A7
:104500001B09DBB2184600F0BEFC03461A46FB6BE3
:104510001B7819461046FCF785F87B6B1B7803F077
:104520000F03DBB2184600F0AEFC03461A46FB6BE5
:104530001B7819461046FCF775F87B6C1B689AB21D
:10454000FB6B1B781946104600F0B9FC7B6C00220F
:104550001A607B6B00221A7000F05ABC7B7D072B1F
:1045600006D87B7D012202FA03F3DAB2244B1A70DB
:104570007B6B01221A7000F04BBC1F4B1B780A2B7F
:1045800008D01D4B1B780D2B04D01B4B1B78002B28
:1045900040F03E843B6B20221A70152300F045BC8E
:1045A000154B1B78184600F045FC03467B757B7D58
:1045B000FF2B27D13B7D002B05D03B6B3A7D1A703A
:1045C000152300F032BCFB6B1B780C2B01D143236D
:1045D00000E054237B75084B1B78797D0293FB8A9E
:1045E00001930123009302230122552000F0B6FC21
:1045F000FB2300F01ABC00BF0D050020BE0B0020FD
:10460000BD0B00207B6B1B781A467B7D114618463C
:1046100000F0FAFD0346DAB27B6B1A70BB6B1B88A5
:1046200003F00103002B07D07B6B1A78FB6B1B7820
:1046300019461046FBF7F6FFBB6B1B8801339AB295
:10464000BB6B1A80E7E39B4B1B78184600F0F2FB2C
:1046500003467B757B7DFF2B32D17B6C1B68DBB205
:1046600003F07F03DAB2944B1A70924B1B78512BF4
:1046700007D1924B1B7843F00303DAB28F4B1A70C9
:10468000C9E38E4B1B7803F00203002B3FF45EAEB0
:104690007B6C00221A603B6B3C221A70874B1B78A4
:1046A00003F00103DBB23333DAB27B6B1A70834B56
:1046B0001B7823F00303DAB2804B1A70FFF7DFBADE
:1046C0007E4B1B7803F00103002B12D0BB6B1B88C1
:1046D0001A467B7D1146184600F096FD03469AB2B5
:1046E000BB6B1A80764B1B780133DAB2744B1A70AD
:1046F00091E37B6C1A687B7D1146184600F084FDBF
:1047000002467B6C1A6086E36A4B1B78184600F001
:1047100091FB03467B757B7DFF2B17D13B7D002BE7
:1047200004D03B6B3A7D1A7019237EE37B6B1978BA
:10473000604B1B780293FB8A0193012300930123B2
:104740000022472000F00AFCFB236EE37B6C1A6812
:104750007B7D1146184600F06BFD02467B6C1A60AB
:1047600059E3544B1B78184600F064FB03467B75F5
:104770007B7DFF2B3DD13B7D002B04D03B6B3A7DF5
:104780001A701B2351E34B4B1B782D2B0ED14B4B37
:104790001B7823F00C03DAB2484B1A70474B1B7896
:1047A00043F00803DAB2454B1A7034E3414B1B78EF
:1047B0002B2B0ED1414B1B7823F00C03DAB23F4B6D
:1047C0001A703E4B1B7843F00403DAB23B4B1A706D
:1047D00021E37B6B1978374B1B780293FB8A01939B
:1047E0000123009301230022472000F0B7FBFB23A5
:1047F0001BE37B6C1A687B7D1146184600F018FDA0
:1048000002467B6C1A6006E32A4B1B78184600F0C0
:1048100011FB03467B757B7DFF2B34D13B7D002B49
:1048200009D03B6B3A7D1A70244B1B7803F02003B0
:10483000002B26D00EE01F4B1B780293FB8A0193BE
:10484000012300930323002247214D2000F086FB23
:10485000FB23EAE21B4B1B781A467B6C1B6899B260
:10486000194B23F81210174B1B781A46174B0621C9
:104870009954144B1B781A46154B01219954012366
:10488000D3E20823D1E27B6C1A687B7D114618467F
:1048900000F0CEFC02467B6C1A60BCE23B7D002B34
:1048A00018D03B6B3A7D1A70FB6B00221A70012303
:1048B000BBE200BF0D050020564700200C0500207C
:1048C00025090020080500203C0F0020F80E0020DC
:1048D0001C0C00209A4B1B78302B06D1984B3122B0
:1048E0001A709849984809F09CF9954B1B78312B20
:1048F0003ED19649944809F0EEF90346FB74934B78
:104900005B7A002B0AD1FB6B1B781946904805F0A7
:104910009FFA8C498C4809F084F93FE0FB7C002B1E
:1049200006D0FB7C1A460121022005F0D1F935E0C2
:10493000864B1B7A03F02003002B06D0FB6B1B7801
:104940001946844805F084FA0BE0804B1B7A03F08B
:104950001003002B05D0FB6B1B7819467E4805F031
:1049600077FAFB6B1B7819467C4805F071FA15E065
:10497000734B1B784E2B11D03B6B2E221A70704B51
:104980001B780293FB8A01930123009303230022E7
:104990000121462000F0E2FAFB2346E2FB6B1B7884
:1049A000184605F041FA36E23B7D002B05D03B6B03
:1049B0003A7D1A707B6B1B7837E2FB6B1B780C2BF4
:1049C00023D97B6B1B78212B0DD15D4B1B78029378
:1049D000FB8A0193032300930323002223214D200C
:1049E00000F0BCFA0FE07B6B1B78203BD9B2544B34
:1049F0001B780293FB8A0193032300930323002275
:104A0000462000F0ABFAFA230FE2FB6B1B781A4644
:104A10004B4B1978524B9954FB6B1B780133DAB22C
:104A2000FB6B1A70F7E1464B1B78184600F002FA50
:104A300003467B757B7DFF2B35D1414B1B78502B7B
:104A400003D1FB6B00221A7028E03D4B1B784E2BE4
:104A50000AD1444B1B7843F00103DAB2414B1A7080
:104A6000FB6B01221A7019E0354B1B78482B03D1E0
:104A7000FB6B01221A7011E07B6B1B78533BD9B2A0
:104A80002F4B1B780293FB8A019301230093002391
:104A90000122462000F062FAFB23C6E17B6B1A7804
:104AA0003B6B1A70B7E17B6C1A687B7D1146184628
:104AB00000F0AAFB02467B6C1A60ACE1204B1B782D
:104AC000184600F0B7F903467B757B7DFF2B16D1A6
:104AD0003B7D002B04D03B6B3A7D1A702923A4E167
:104AE000174B1B780293FB8A019301230093012348
:104AF00001220821462000F031FAFB2395E1BB6B2F
:104B00001B881A467B7D1146184600F091FB034630
:104B10009AB2BB6B1A80BB6B1B88B3F5007F40F267
:104B20007981074B1B780293FB8A01930223009340
:104B3000012300220821462000F010FAF92374E135
:104B40000D050020344600206C460020FC45002066
:104B500010F5000818F500081CF5000805460020AF
:104B6000244600200C050020FB6B1B78002B5CD03A
:104B7000A24B1B7803F00103002B56D1A04B1B78EE
:104B8000184600F057F903467B757B7DFF2B1AD141
:104B90003B6B2E221A703B7D002B02D03B6B3A7D83
:104BA0001A70BB6B1B885B089AB2BB6B1A80BB6B1D
:104BB0001B881A469349002001F01EFF0246924BC3
:104BC0001A602A2331E17B6B1B781A467B7D1146E4
:104BD000184600F019FB0346DAB27B6B1A70BB6B08
:104BE0001B885B089BB21A467B6B1978854B9954DE
:104BF000BB6B1B8801339AB2BB6B1A80BB6B1B88E3
:104C00005B089BB2B3F5007FC0F0CD807C4B1B7876
:104C10000293FB8A019303230093022301220921BB
:104C2000462000F09BF9FA23FFE0FB6B1B78002B7A
:104C300040F0AA80714B1B7803F00103002B40F079
:104C4000A3803B7D002B04D03B6B3A7D1A702A2356
:104C5000EBE06E4B1B78032B17D17B6B1B781B0192
:104C6000DCB2674B1B78184600F0E4F80346234497
:104C7000DAB27B6B1A70654B00221A70BB6B1B8813
:104C8000013B9AB2BB6B1A8059E0604B1B78022B38
:104C900012D15B4B1B78184600F0CCF803461A463D
:104CA0007B6B1A70594B03221A70BB6B1B88013B3C
:104CB0009AB2BB6B1A8042E0544B1B78012B32D165
:104CC000524B00221A70FB8ABA6813441A784C4B74
:104CD0001A704B4B1A787B6B1A70494B1B786E2BF2
:104CE00003D17B6B0A221A7016E0454B1B78722B9E
:104CF00003D17B6B0D221A700EE0414B1B78302BD9
:104D000003D17B6B00221A7006E03D4B1B78682BA9
:104D100002D13E4B02221A70BB6B1B88013B9AB238
:104D2000BB6B1A800BE0364B1B785C2B03D1374BE7
:104D300001221A7003E0324B1A787B6B1A703049EB
:104D4000314801F07BFEBB6B1B881A467B6B1978E0
:104D50002C4B9954BB6B1B8801339AB2BB6B1A80E6
:104D6000BB6B1B88B3F5007F1ED3254B1B780293CA
:104D7000FB8A019303230093032301220921462088
:104D800000F0ECF8FA2350E01D4B1B780293FB8AED
:104D9000019301230093002301220921462000F002
:104DA000DDF8FB2341E000BF35E03B7D002B05D063
:104DB0003B6B3A7D1A707B6B1B7836E0104B1B788F
:104DC000184600F037F803461A467B6C1A6022E05A
:104DD000FE232AE000BF1EE000BF1CE000BF1AE077
:104DE00000BF18E000BF16E000BF14E000BF12E0F3
:104DF00000BF10E000BF0EE000BF0CE00C0500207B
:104E00000D050020680C0020C4450020BE0B0020CA
:104E100000BF00E000BFFB8A0133FB823B681B88B8
:104E2000FA8A9A427BF627AE022318461C37BD4603
:104E3000F0BD00BF80B483B000AF0346FB71FB79C7
:104E40002F2B06D9FB79392B03D8FB79303BDBB20A
:104E500014E0FB79402B06D9FB79462B03D8FB796C
:104E6000373BDBB20AE0FB79602B06D9FB79662B76
:104E700003D8FB79573BDBB200E0FF2318460C3721
:104E8000BD4680BC704780B483B000AF0346FB7161
:104E9000FB79092B03D8FB793033DBB20AE0FB79CD
:104EA000092B06D9FB790F2B03D8FB793733DBB2FB
:104EB00000E0FF2318460C37BD4680BC704780B524
:104EC00082B000AF03460A46FB8013467B71FB8825
:104ED0001B0B9BB2DBB203F00F03DBB21846FFF7EC
:104EE000D2FF03461A467B7919461046FBF79AFB18
:104EF000FB881B0A9BB2DBB203F00F03DBB2184640
:104F0000FFF7C1FF03461A467B7919461046FBF7A7
:104F100089FBFB881B099BB2DBB203F00F03DBB2FA
:104F20001846FFF7B0FF03461A467B79194610462C
:104F3000FBF778FBFB88DBB203F00F03DBB218460C
:104F4000FFF7A1FF03461A467B7919461046FBF787
:104F500069FB00BF0837BD4680BD000090B583B037
:104F600000AF0446084611461A462346FB71034625
:104F7000BB710B467B7113463B718D4B1B78DBB2CB
:104F8000002B00F01081FB79002B04D10F21894800
:104F900004F05EFF3DE0FB790F211846FBF742FB72
:104FA000BB79FF2B08D10F212E20FBF73BFB0F21F4
:104FB0002E20FBF737FB2CE0FB79552B09D10F2175
:104FC0007820FBF72FFBBB790F211846FBF72AFB54
:104FD0001FE0FB79532B05D1BB790F211846FBF756
:104FE00021FB16E0BB791B09DBB21846FFF74BFF2C
:104FF00003460F211846FBF715FBBB7903F00F039F
:10500000DBB21846FFF73FFF03460F211846FBF7B8
:1050100009FB0F212020FBF705FB7B79012B04D135
:105020000F21654804F014FF06E07B79022B03D1C1
:105030000F21624804F00CFF3B79012B0AD1604B31
:105040001B7803F00303012B04D10F214E20FBF743
:10505000E9FA0EE03B79022B04D10F214820FBF73F
:10506000E1FA06E03B79002B03D00F215020FBF73B
:10507000D9FA3B7E012B04D10F21524804F0E8FEFF
:105080001EE03B7E022B04D10F214F4804F0E0FECE
:1050900016E03B7E032B04D10F214C4804F0D8FED0
:1050A0000EE03B7E042B04D10F21494804F0D0FED2
:1050B00006E03B7E052B03D10F21464804F0C8FED5
:1050C00097F82030002B68D00F21434804F0C0FE31
:1050D00097F820301B09DBB21846FFF7D4FE0346D1
:1050E0000F211846FBF79EFA97F8203003F00F03C4
:1050F000DBB21846FFF7C7FE03460F211846FBF741
:1051000091FA0F21354804F0A3FE97F820300F21C3
:105110001846FBF787FABB8B0133BB83304B1B78F8
:10512000012B17D10F212F4804F092FE2E4B1B8824
:105130000F211846FFF7C3FE0F212C4804F088FE0C
:105140002B4B1B880F211846FFF7B9FE294B1B88F4
:10515000BB8319E0224B1B78022B04D10F21264878
:1051600004F076FE10E01E4B1B78032B04D10F21B8
:10517000224804F06DFE07E0194B1B78042B03D185
:105180000F211F4804F064FE0F211E4804F060FE4A
:10519000BB8B0F211846FFF792FE0F210D20FBF766
:1051A00041FA06F02BF900BF0C37BD4690BD00BF99
:1051B000940E002020F5000830F5000834F50008B2
:1051C0000C0500203CF5000850F5000864F50008C7
:1051D00078F5000888F5000894F500089CF50008AB
:1051E000950E0020A0F500088E460020ACF50008C2
:1051F000080900200C090020BCF50008C8F50008CB
:10520000D4F50008DCF5000880B483B000AF034695
:105210003960FB713B681B013B60FB793A681344C2
:105220003B603B6818460C37BD4680BC70470000A9
:1052300080B483B000AF03463960FB710C4B1B7820
:1052400003F00103002B06D03A6813469B00134479
:105250005B003B6002E03B681B013B60FB793A6806
:1052600013443B603B6818460C37BD4680BC704712
:105270000C05002080B485B000AF78600B46FB7051
:10528000FB78DB00FB70FB787A6822FA03F3FB7390
:10529000FB7B18461437BD4680BC704780B500AF15
:1052A000154A154B1B6843F0010313601249124B5A
:1052B0005A68124B13404B600F4A0F4B1B6823F088
:1052C000847323F4803313600B4A0B4B1B6823F465
:1052D00080231360084A084B5B6823F4FE03536085
:1052E000054B4FF41F029A6000F00CF8044B4FF08E
:1052F00000629A6000BF80BD001002400000FFF80D
:1053000000ED00E080B483B000AF00237B60002399
:105310003B60354A344B1B6843F4803313607B6831
:1053200001337B60304B1B6803F40033002B03D147
:105330007B68B3F5A06FF2D32B4B1B6803F40033EB
:10534000002B4BD0294A294B1B6843F010031360F4
:10535000264A264B1B6823F003031360234A234B82
:105360001B6843F0020313601F4A1F4B5B685360C6
:105370001D4A1D4B5B6853601B4A1B4B5B6843F423
:1053800080635360184A184B5B6823F47C135360A6
:10539000154A154B5B6843F4E8135360124A124BED
:1053A0001B6843F08073136000BF0F4B1B6803F052
:1053B0000073002BF9D00C4A0B4B5B6823F00303FE
:1053C0005360094A084B5B6843F00203536000BF17
:1053D000054B5B6803F00C03082BF9D100BF0C37B9
:1053E000BD4680BC704700BF001002400020024054
:1053F0001EF0040F0CBFEFF30880EFF3098000F0FC
:1054000001B800BF80B493B000AF78607B681B68C0
:105410007B647B685B683B647B689B68FB637B6841
:10542000DB68BB637B681B697B637B685B693B6391
:105430007B689B69FB627B68DB69BB620E4B1B6808
:105440007B620E4B1B683B620D4B1B68FB610D4B77
:105450001B68BB610C4B1B687B610C4B1B683B6181
:105460000B4B5B6AFB600B4B1B6803F00103002BCB
:1054700000D001BEFEE700BF38ED00E028ED00E0FF
:105480002CED00E030ED00E03CED00E034ED00E01C
:1054900000ED00E0F0ED00E080B400AF084A084BFA
:1054A0009B6943F008039361064B4FF011325A6039
:1054B000044B4FF47F425A6100BFBD4680BC704729
:1054C00000100240000C014080B485B000AF0346DC
:1054D000FB800B46BB8013467B805B4AFB881380B6
:1054E0005A4A5A4BDB6943F00403D361584B1B689B
:1054F000584AA2FB03235B0D9BB2013BFB81564A3A
:10550000FB889385544AFB891385534A524B1B8869
:105510009BB223F45C739BB213804F4B4E4A1288AC
:1055200092B21A804C4B01229A824B4A4A4B1B88FA
:105530009BB223F080039BB21380474A464B1B8CDF
:105540009BB223F001039BB21384434A424B1B8B53
:105550009BB223F070039BB213833F4A3E4B1B8BDD
:105560009BB223F003039BB213833B4B3A4A128B4B
:1055700092B21A83384A384B1B8C9BB223F0020339
:105580009BB21384344B344A128C92B21A84324A3E
:10559000BB889386304A304B1B8B9BB223F00803A9
:1055A0009BB213832C4B2C4A128B92B21A832A4A39
:1055B000294B1B8C9BB223F010039BB21384264A09
:1055C000254B1B8B9BB223F4E0439BB21383224AEF
:1055D000214B1B8B9BB223F440739BB213831E4A57
:1055E0001D4B1B8B9BB243F4C0439BB213831A4ADF
:1055F000194B1B8C9BB223F020039BB21384164AD9
:10560000154B1B8C9BB243F010039BB21384124AC0
:105610007B881387104A104B1B8B9BB223F40063CB
:105620009BB213830C4B0C4A128B92B21A830B4B16
:10563000202283F81E23094B4FF080421A6000BFDE
:105640001437BD4680BC704728000020001002407F
:1056500010000020819F5E160008004000E100E07D
:1056600080B483B000AF78605A4A5A4B5B6943F00C
:10567000010353615849584B1A684FF6FE731340A3
:105680000B60554B00221A60534B00225A60524B5C
:1056900000229A60504B0022DA60504A4F4B5B6800
:1056A00043F0706353604C4A4B4B1B6823F4FF4339
:1056B00023F070031360484A474B1B6843F40053C0
:1056C00043F010031360444B00225A60424B444A9B
:1056D0009A60414B434ADA604349434B1A684FF69C
:1056E000FE7313400B60404B00221A603E4B0022B9
:1056F0005A603D4B00229A603B4B0022DA60374AE9
:10570000364B5B6843F00F0353607B68374A136086
:10571000354A354B1B6823F4FF4323F070031360B5
:10572000314A314B1B6843F4025343F010031360BA
:105730002D4B00225A602C4B294A9A602A4A7B68DA
:10574000D3602B492A4B1A684FF6FE7313400B6047
:10575000274B00221A60264B00225A60244B00225D
:105760009A60234B0022DA601C4A1C4B5B6843F4AE
:10577000704353601E4A1E4B1B6823F4FF4323F003
:10578000700313601A4A1A4B1B6843F4005343F02A
:1057900010031360164B00225A60154B104A9A6092
:1057A000134B144ADA60144B144ADA60144B00228B
:1057B00083F80E23124B4FF480421A600C4A0C4BB4
:1057C0001B6843F00203136000BF0C37BD4680BC6A
:1057D000704700BF001002408000024000000240FD
:1057E0000D0C01402700002008000240D40B0020CF
:1057F000440002404C06002000ED00E00007FA05DE
:1058000000E100E080B483B000AF7860244B254A0B
:105810005A60254A7B685360244A7B685360244A57
:105820007B685360234B00221A821F4A1E4B1B6861
:1058300043F0010313601D4A1C4B1B6843F0010336
:1058400013601B4A1A4B1B6843F001031360194A8B
:10585000184B9B899BB243F400739BB29381154A0A
:10586000144B9B899BB243F480639BB29381114A92
:10587000104B9B899BB243F480739BB293810D4B79
:105880000D4A12889A840B4A0A4B1B889BB243F03C
:1058900001039BB2138000BF0C37BD4680BC70472C
:1058A000000002400FD0000F8000024008000240BC
:1058B00044000240000800402800002080B483B06B
:1058C00000AF78607B68B3F5585F05D20549064B99
:1058D0001A687B681344CB6000BF0C37BD4680BCA0
:1058E000704700BF08000240D40B002080B500AF15
:1058F00005F056FB1E4B4FF47F425A611D4B4FF48F
:1059000000525A60012201211B48FBF77DF81B4918
:105910001A4B1A684FF6FE7313400B601849184B68
:105920001A684FF6FE7313400B601649154B1A6840
:105930004FF6FE7313400B600F4A0F4B9B899BB2CF
:1059400023F400739BB293810B4A0B4B9B899BB250
:1059500023F480639BB29381074A074B9B899BB2D8
:1059600023F480739BB2938105F028FB00BF80BDB8
:10597000000C01400000024000080040800002408E
:10598000080002404400024080B500AF05F008FB6B
:10599000154B4FF6FE721A82144B1B78122B06D849
:1059A000124B1B780133DAB2104B1A7017E00F4B11
:1059B00000221A700C4A0C4B1B889BB223F0010387
:1059C0009BB21380002201210748FBF71DF8084B0A
:1059D0001B7803F07F03042B01D105F085F905F056
:1059E000EDFA00BF80BD00BF000800404D0600205A
:1059F0002A00002080B487B000AFF8607B600B46BF
:105A0000FB7213463B817B68FB747B681B0ABB748B
:105A10007B681B0C7B74FB7C664A127802FB03F3E9
:105A20005B11FB74BB7C634A127802FB03F35B11CE
:105A3000BB747B7C5F4A127802FB03F35B117B74BF
:105A40003B891A4652001344DB00BB8297F90B30A6
:105A5000DB435AB2584B1B785BB213405BB23B74CA
:105A6000554B1A78FB7A1340FB720023FB758BE0D1
:105A7000BB8AFA681344BA8AF9680A4411783A7CF6
:105A80000A40D2B21A70BB8A0833FA681344BA8A41
:105A90000832F9680A4411783A7C0A40D2B21A7086
:105AA000BB8A1033FA681344BA8A1032F9680A4480
:105AB00011783A7C0A40D2B21A70BB8AFA68134451
:105AC000BA8AF9680A44127851B2B87CFA7D00FAB1
:105AD00002F2D211D2B202F00102D2B2F87A00FB85
